{
  "address": "0x3b84303BE9adB0e09d1657534704c9CbbE9d81A3",
  "abi": [
    {
      "inputs": [],
      "name": "ActionMayCauseInsolvency",
      "type": "error"
    },
    {
      "inputs": [],
      "name": "CalldataMustHaveValidPayload",
      "type": "error"
    },
    {
      "inputs": [],
      "name": "CalldataOverOrUnderFlow",
      "type": "error"
    },
    {
      "inputs": [],
      "name": "DataPackageTimestampMustNotBeZero",
      "type": "error"
    },
    {
      "inputs": [],
      "name": "DataPackageTimestampsMustBeEqual",
      "type": "error"
    },
    {
      "inputs": [],
      "name": "DepositTokenInactive",
      "type": "error"
    },
    {
      "inputs": [],
      "name": "EachSignerMustProvideTheSameValue",
      "type": "error"
    },
    {
      "inputs": [],
      "name": "EmptyCalldataPointersArr",
      "type": "error"
    },
    {
      "inputs": [],
      "name": "GlvTokenNotFound",
      "type": "error"
    },
    {
      "inputs": [],
      "name": "GlvTokenNotWhitelisted",
      "type": "error"
    },
    {
      "inputs": [],
      "name": "GmxMarketTokensNotFound",
      "type": "error"
    },
    {
      "inputs": [],
      "name": "GmxPlusMarketTokenNotFound",
      "type": "error"
    },
    {
      "inputs": [],
      "name": "IncorrectUnsignedMetadataSize",
      "type": "error"
    },
    {
      "inputs": [],
      "name": "InsufficientBalance",
      "type": "error"
    },
    {
      "inputs": [],
      "name": "InsufficientBalanceAfterFees",
      "type": "error"
    },
    {
      "inputs": [
        {
          "internalType": "uint256",
          "name": "receivedSignersCount",
          "type": "uint256"
        },
        {
          "internalType": "uint256",
          "name": "requiredSignersCount",
          "type": "uint256"
        }
      ],
      "name": "InsufficientNumberOfUniqueSigners",
      "type": "error"
    },
    {
      "inputs": [],
      "name": "InvalidCalldataPointer",
      "type": "error"
    },
    {
      "inputs": [],
      "name": "InvalidExecutionFee",
      "type": "error"
    },
    {
      "inputs": [],
      "name": "InvalidGlvToken",
      "type": "error"
    },
    {
      "inputs": [],
      "name": "InvalidMinOutputValue",
      "type": "error"
    },
    {
      "inputs": [],
      "name": "InvalidTargetMarket",
      "type": "error"
    },
    {
      "inputs": [],
      "name": "MarketNotWhitelisted",
      "type": "error"
    },
    {
      "inputs": [],
      "name": "OnlyWhitelistedLiquidators",
      "type": "error"
    },
    {
      "inputs": [
        {
          "internalType": "bytes",
          "name": "result",
          "type": "bytes"
        }
      ],
      "name": "ProxyCalldataFailedWithCustomError",
      "type": "error"
    },
    {
      "inputs": [
        {
          "internalType": "string",
          "name": "message",
          "type": "string"
        }
      ],
      "name": "ProxyCalldataFailedWithStringMessage",
      "type": "error"
    },
    {
      "inputs": [],
      "name": "ProxyCalldataFailedWithoutErrMsg",
      "type": "error"
    },
    {
      "inputs": [],
      "name": "RedstonePayloadMustHaveAtLeastOneDataPackage",
      "type": "error"
    },
    {
      "inputs": [
        {
          "internalType": "address",
          "name": "receivedSigner",
          "type": "address"
        }
      ],
      "name": "SignerNotAuthorised",
      "type": "error"
    },
    {
      "inputs": [],
      "name": "WrongDepositToken",
      "type": "error"
    },
    {
      "inputs": [],
      "name": "ZeroDepositAmount",
      "type": "error"
    },
    {
      "inputs": [],
      "name": "ZeroWithdrawalAmount",
      "type": "error"
    },
    {
      "anonymous": false,
      "inputs": [
        {
          "indexed": true,
          "internalType": "address",
          "name": "gmMarket",
          "type": "address"
        },
        {
          "indexed": true,
          "internalType": "uint256",
          "name": "benchmarkValueUsd",
          "type": "uint256"
        },
        {
          "indexed": false,
          "internalType": "uint256",
          "name": "longTokenAmount",
          "type": "uint256"
        },
        {
          "indexed": false,
          "internalType": "uint256",
          "name": "shortTokenAmount",
          "type": "uint256"
        },
        {
          "indexed": false,
          "internalType": "address",
          "name": "longTokenAddress",
          "type": "address"
        },
        {
          "indexed": false,
          "internalType": "address",
          "name": "shortTokenAddress",
          "type": "address"
        },
        {
          "indexed": false,
          "internalType": "uint256",
          "name": "gmTokenPriceUsd",
          "type": "uint256"
        },
        {
          "indexed": false,
          "internalType": "uint256",
          "name": "longTokenPriceUsd",
          "type": "uint256"
        },
        {
          "indexed": false,
          "internalType": "uint256",
          "name": "shortTokenPriceUsd",
          "type": "uint256"
        },
        {
          "indexed": false,
          "internalType": "uint256",
          "name": "timestamp",
          "type": "uint256"
        }
      ],
      "name": "BenchmarkCreated",
      "type": "event"
    },
    {
      "anonymous": false,
      "inputs": [
        {
          "indexed": true,
          "internalType": "address",
          "name": "gmMarket",
          "type": "address"
        },
        {
          "indexed": true,
          "internalType": "address",
          "name": "initiator",
          "type": "address"
        },
        {
          "indexed": false,
          "internalType": "bool",
          "name": "isPlusMarket",
          "type": "bool"
        },
        {
          "indexed": false,
          "internalType": "uint256",
          "name": "timestamp",
          "type": "uint256"
        }
      ],
      "name": "BenchmarkInitiated",
      "type": "event"
    },
    {
      "anonymous": false,
      "inputs": [
        {
          "indexed": true,
          "internalType": "address",
          "name": "gmMarket",
          "type": "address"
        },
        {
          "indexed": true,
          "internalType": "uint256",
          "name": "newBenchmarkValueUsd",
          "type": "uint256"
        },
        {
          "indexed": false,
          "internalType": "uint256",
          "name": "newLongTokenAmount",
          "type": "uint256"
        },
        {
          "indexed": false,
          "internalType": "uint256",
          "name": "newShortTokenAmount",
          "type": "uint256"
        },
        {
          "indexed": false,
          "internalType": "uint256",
          "name": "gmTokenPriceUsd",
          "type": "uint256"
        },
        {
          "indexed": false,
          "internalType": "uint256",
          "name": "longTokenPriceUsd",
          "type": "uint256"
        },
        {
          "indexed": false,
          "internalType": "uint256",
          "name": "shortTokenPriceUsd",
          "type": "uint256"
        },
        {
          "indexed": false,
          "internalType": "uint256",
          "name": "timestamp",
          "type": "uint256"
        }
      ],
      "name": "BenchmarkUpdated",
      "type": "event"
    },
    {
      "anonymous": false,
      "inputs": [
        {
          "indexed": true,
          "internalType": "address",
          "name": "gmToken",
          "type": "address"
        },
        {
          "indexed": true,
          "internalType": "address",
          "name": "depositedToken",
          "type": "address"
        },
        {
          "indexed": false,
          "internalType": "uint256",
          "name": "tokenAmount",
          "type": "uint256"
        },
        {
          "indexed": false,
          "internalType": "uint256",
          "name": "minGmAmount",
          "type": "uint256"
        },
        {
          "indexed": false,
          "internalType": "uint256",
          "name": "executionFee",
          "type": "uint256"
        },
        {
          "indexed": false,
          "internalType": "uint256",
          "name": "timestamp",
          "type": "uint256"
        }
      ],
      "name": "DepositInitiated",
      "type": "event"
    },
    {
      "anonymous": false,
      "inputs": [
        {
          "indexed": true,
          "internalType": "address",
          "name": "gmMarket",
          "type": "address"
        },
        {
          "indexed": true,
          "internalType": "uint256",
          "name": "feeInGmTokens",
          "type": "uint256"
        },
        {
          "indexed": false,
          "internalType": "uint256",
          "name": "performanceUsd",
          "type": "uint256"
        },
        {
          "indexed": false,
          "internalType": "uint256",
          "name": "currentBalance",
          "type": "uint256"
        },
        {
          "indexed": false,
          "internalType": "uint256",
          "name": "timestamp",
          "type": "uint256"
        }
      ],
      "name": "FeesCollected",
      "type": "event"
    },
    {
      "anonymous": false,
      "inputs": [
        {
          "indexed": true,
          "internalType": "address",
          "name": "gmToken",
          "type": "address"
        },
        {
          "indexed": false,
          "internalType": "uint256",
          "name": "feesCollected",
          "type": "uint256"
        },
        {
          "indexed": true,
          "internalType": "address",
          "name": "initiator",
          "type": "address"
        },
        {
          "indexed": false,
          "internalType": "bool",
          "name": "isPlusMarket",
          "type": "bool"
        },
        {
          "indexed": false,
          "internalType": "uint256",
          "name": "timestamp",
          "type": "uint256"
        }
      ],
      "name": "FeesSweptAndBenchmarkUpdated",
      "type": "event"
    },
    {
      "anonymous": false,
      "inputs": [
        {
          "indexed": true,
          "internalType": "address",
          "name": "gmToken",
          "type": "address"
        },
        {
          "indexed": false,
          "internalType": "uint256",
          "name": "feesCollected",
          "type": "uint256"
        },
        {
          "indexed": false,
          "internalType": "string",
          "name": "operationType",
          "type": "string"
        },
        {
          "indexed": false,
          "internalType": "uint256",
          "name": "timestamp",
          "type": "uint256"
        }
      ],
      "name": "FeesSweptDuringOperation",
      "type": "event"
    },
    {
      "anonymous": false,
      "inputs": [
        {
          "indexed": true,
          "internalType": "address",
          "name": "gmToken",
          "type": "address"
        },
        {
          "indexed": false,
          "internalType": "uint256",
          "name": "gmAmount",
          "type": "uint256"
        },
        {
          "indexed": false,
          "internalType": "uint256",
          "name": "minLongTokenAmount",
          "type": "uint256"
        },
        {
          "indexed": false,
          "internalType": "uint256",
          "name": "minShortTokenAmount",
          "type": "uint256"
        },
        {
          "indexed": false,
          "internalType": "uint256",
          "name": "executionFee",
          "type": "uint256"
        },
        {
          "indexed": false,
          "internalType": "uint256",
          "name": "timestamp",
          "type": "uint256"
        }
      ],
      "name": "WithdrawalInitiated",
      "type": "event"
    },
    {
      "inputs": [],
      "name": "FEE_PERCENTAGE",
      "outputs": [
        {
          "internalType": "uint256",
          "name": "",
          "type": "uint256"
        }
      ],
      "stateMutability": "view",
      "type": "function"
    },
    {
      "inputs": [
        {
          "internalType": "bytes32[]",
          "name": "assetsToRepay",
          "type": "bytes32[]"
        }
      ],
      "name": "_getAllPricesForLiquidation",
      "outputs": [
        {
          "components": [
            {
              "components": [
                {
                  "internalType": "bytes32",
                  "name": "asset",
                  "type": "bytes32"
                },
                {
                  "internalType": "uint256",
                  "name": "price",
                  "type": "uint256"
                }
              ],
              "internalType": "struct SolvencyFacetProd.AssetPrice[]",
              "name": "ownedAssetsPrices",
              "type": "tuple[]"
            },
            {
              "components": [
                {
                  "internalType": "bytes32",
                  "name": "asset",
                  "type": "bytes32"
                },
                {
                  "internalType": "uint256",
                  "name": "price",
                  "type": "uint256"
                }
              ],
              "internalType": "struct SolvencyFacetProd.AssetPrice[]",
              "name": "debtAssetsPrices",
              "type": "tuple[]"
            },
            {
              "components": [
                {
                  "internalType": "bytes32",
                  "name": "asset",
                  "type": "bytes32"
                },
                {
                  "internalType": "uint256",
                  "name": "price",
                  "type": "uint256"
                }
              ],
              "internalType": "struct SolvencyFacetProd.AssetPrice[]",
              "name": "stakedPositionsPrices",
              "type": "tuple[]"
            },
            {
              "components": [
                {
                  "internalType": "bytes32",
                  "name": "asset",
                  "type": "bytes32"
                },
                {
                  "internalType": "uint256",
                  "name": "price",
                  "type": "uint256"
                }
              ],
              "internalType": "struct SolvencyFacetProd.AssetPrice[]",
              "name": "assetsToRepayPrices",
              "type": "tuple[]"
            },
            {
              "components": [
                {
                  "internalType": "bytes32",
                  "name": "asset",
                  "type": "bytes32"
                },
                {
                  "internalType": "uint256",
                  "name": "price",
                  "type": "uint256"
                }
              ],
              "internalType": "struct SolvencyFacetProd.AssetPrice[]",
              "name": "tjv2TokenPrices",
              "type": "tuple[]"
            }
          ],
          "internalType": "struct SolvencyFacetProd.CachedPrices",
          "name": "result",
          "type": "tuple"
        }
      ],
      "stateMutability": "nonpayable",
      "type": "function"
    },
    {
      "inputs": [],
      "name": "_getHealthRatio",
      "outputs": [
        {
          "internalType": "uint256",
          "name": "health",
          "type": "uint256"
        }
      ],
      "stateMutability": "nonpayable",
      "type": "function"
    },
    {
      "inputs": [
        {
          "components": [
            {
              "components": [
                {
                  "internalType": "bytes32",
                  "name": "asset",
                  "type": "bytes32"
                },
                {
                  "internalType": "uint256",
                  "name": "price",
                  "type": "uint256"
                }
              ],
              "internalType": "struct SolvencyFacetProd.AssetPrice[]",
              "name": "ownedAssetsPrices",
              "type": "tuple[]"
            },
            {
              "components": [
                {
                  "internalType": "bytes32",
                  "name": "asset",
                  "type": "bytes32"
                },
                {
                  "internalType": "uint256",
                  "name": "price",
                  "type": "uint256"
                }
              ],
              "internalType": "struct SolvencyFacetProd.AssetPrice[]",
              "name": "debtAssetsPrices",
              "type": "tuple[]"
            },
            {
              "components": [
                {
                  "internalType": "bytes32",
                  "name": "asset",
                  "type": "bytes32"
                },
                {
                  "internalType": "uint256",
                  "name": "price",
                  "type": "uint256"
                }
              ],
              "internalType": "struct SolvencyFacetProd.AssetPrice[]",
              "name": "stakedPositionsPrices",
              "type": "tuple[]"
            },
            {
              "components": [
                {
                  "internalType": "bytes32",
                  "name": "asset",
                  "type": "bytes32"
                },
                {
                  "internalType": "uint256",
                  "name": "price",
                  "type": "uint256"
                }
              ],
              "internalType": "struct SolvencyFacetProd.AssetPrice[]",
              "name": "assetsToRepayPrices",
              "type": "tuple[]"
            },
            {
              "components": [
                {
                  "internalType": "bytes32",
                  "name": "asset",
                  "type": "bytes32"
                },
                {
                  "internalType": "uint256",
                  "name": "price",
                  "type": "uint256"
                }
              ],
              "internalType": "struct SolvencyFacetProd.AssetPrice[]",
              "name": "tjv2TokenPrices",
              "type": "tuple[]"
            }
          ],
          "internalType": "struct SolvencyFacetProd.CachedPrices",
          "name": "cachedPrices",
          "type": "tuple"
        }
      ],
      "name": "_getHealthRatioWithPrices",
      "outputs": [
        {
          "internalType": "uint256",
          "name": "health",
          "type": "uint256"
        }
      ],
      "stateMutability": "nonpayable",
      "type": "function"
    },
    {
      "inputs": [],
      "name": "_getThresholdWeightedValue",
      "outputs": [
        {
          "internalType": "uint256",
          "name": "twv",
          "type": "uint256"
        }
      ],
      "stateMutability": "nonpayable",
      "type": "function"
    },
    {
      "inputs": [],
      "name": "_getThresholdWeightedValuePayable",
      "outputs": [
        {
          "internalType": "uint256",
          "name": "twv",
          "type": "uint256"
        }
      ],
      "stateMutability": "nonpayable",
      "type": "function"
    },
    {
      "inputs": [
        {
          "internalType": "bool",
          "name": "isLongToken",
          "type": "bool"
        },
        {
          "internalType": "uint256",
          "name": "tokenAmount",
          "type": "uint256"
        },
        {
          "internalType": "uint256",
          "name": "minGmAmount",
          "type": "uint256"
        },
        {
          "internalType": "uint256",
          "name": "executionFee",
          "type": "uint256"
        }
      ],
      "name": "depositArbUsdcGmxV2",
      "outputs": [],
      "stateMutability": "payable",
      "type": "function"
    },
    {
      "inputs": [
        {
          "internalType": "bool",
          "name": "isLongToken",
          "type": "bool"
        },
        {
          "internalType": "uint256",
          "name": "tokenAmount",
          "type": "uint256"
        },
        {
          "internalType": "uint256",
          "name": "minGmAmount",
          "type": "uint256"
        },
        {
          "internalType": "uint256",
          "name": "executionFee",
          "type": "uint256"
        }
      ],
      "name": "depositAtomUsdcGmxV2",
      "outputs": [],
      "stateMutability": "payable",
      "type": "function"
    },
    {
      "inputs": [
        {
          "internalType": "bool",
          "name": "isLongToken",
          "type": "bool"
        },
        {
          "internalType": "uint256",
          "name": "tokenAmount",
          "type": "uint256"
        },
        {
          "internalType": "uint256",
          "name": "minGmAmount",
          "type": "uint256"
        },
        {
          "internalType": "uint256",
          "name": "executionFee",
          "type": "uint256"
        }
      ],
      "name": "depositBtcUsdcGmxV2",
      "outputs": [],
      "stateMutability": "payable",
      "type": "function"
    },
    {
      "inputs": [
        {
          "internalType": "bool",
          "name": "isLongToken",
          "type": "bool"
        },
        {
          "internalType": "uint256",
          "name": "tokenAmount",
          "type": "uint256"
        },
        {
          "internalType": "uint256",
          "name": "minGmAmount",
          "type": "uint256"
        },
        {
          "internalType": "uint256",
          "name": "executionFee",
          "type": "uint256"
        }
      ],
      "name": "depositEthUsdcGmxV2",
      "outputs": [],
      "stateMutability": "payable",
      "type": "function"
    },
    {
      "inputs": [
        {
          "internalType": "bool",
          "name": "isLongToken",
          "type": "bool"
        },
        {
          "internalType": "uint256",
          "name": "tokenAmount",
          "type": "uint256"
        },
        {
          "internalType": "uint256",
          "name": "minGmAmount",
          "type": "uint256"
        },
        {
          "internalType": "uint256",
          "name": "executionFee",
          "type": "uint256"
        }
      ],
      "name": "depositGmxUsdcGmxV2",
      "outputs": [],
      "stateMutability": "payable",
      "type": "function"
    },
    {
      "inputs": [
        {
          "internalType": "bool",
          "name": "isLongToken",
          "type": "bool"
        },
        {
          "internalType": "uint256",
          "name": "tokenAmount",
          "type": "uint256"
        },
        {
          "internalType": "uint256",
          "name": "minGmAmount",
          "type": "uint256"
        },
        {
          "internalType": "uint256",
          "name": "executionFee",
          "type": "uint256"
        }
      ],
      "name": "depositLinkUsdcGmxV2",
      "outputs": [],
      "stateMutability": "payable",
      "type": "function"
    },
    {
      "inputs": [
        {
          "internalType": "bool",
          "name": "isLongToken",
          "type": "bool"
        },
        {
          "internalType": "uint256",
          "name": "tokenAmount",
          "type": "uint256"
        },
        {
          "internalType": "uint256",
          "name": "minGmAmount",
          "type": "uint256"
        },
        {
          "internalType": "uint256",
          "name": "executionFee",
          "type": "uint256"
        }
      ],
      "name": "depositNearUsdcGmxV2",
      "outputs": [],
      "stateMutability": "payable",
      "type": "function"
    },
    {
      "inputs": [
        {
          "internalType": "bool",
          "name": "isLongToken",
          "type": "bool"
        },
        {
          "internalType": "uint256",
          "name": "tokenAmount",
          "type": "uint256"
        },
        {
          "internalType": "uint256",
          "name": "minGmAmount",
          "type": "uint256"
        },
        {
          "internalType": "uint256",
          "name": "executionFee",
          "type": "uint256"
        }
      ],
      "name": "depositSeiUsdcGmxV2",
      "outputs": [],
      "stateMutability": "payable",
      "type": "function"
    },
    {
      "inputs": [
        {
          "internalType": "bool",
          "name": "isLongToken",
          "type": "bool"
        },
        {
          "internalType": "uint256",
          "name": "tokenAmount",
          "type": "uint256"
        },
        {
          "internalType": "uint256",
          "name": "minGmAmount",
          "type": "uint256"
        },
        {
          "internalType": "uint256",
          "name": "executionFee",
          "type": "uint256"
        }
      ],
      "name": "depositSolUsdcGmxV2",
      "outputs": [],
      "stateMutability": "payable",
      "type": "function"
    },
    {
      "inputs": [
        {
          "internalType": "bool",
          "name": "isLongToken",
          "type": "bool"
        },
        {
          "internalType": "uint256",
          "name": "tokenAmount",
          "type": "uint256"
        },
        {
          "internalType": "uint256",
          "name": "minGmAmount",
          "type": "uint256"
        },
        {
          "internalType": "uint256",
          "name": "executionFee",
          "type": "uint256"
        }
      ],
      "name": "depositSuiUsdcGmxV2",
      "outputs": [],
      "stateMutability": "payable",
      "type": "function"
    },
    {
      "inputs": [
        {
          "internalType": "bool",
          "name": "isLongToken",
          "type": "bool"
        },
        {
          "internalType": "uint256",
          "name": "tokenAmount",
          "type": "uint256"
        },
        {
          "internalType": "uint256",
          "name": "minGmAmount",
          "type": "uint256"
        },
        {
          "internalType": "uint256",
          "name": "executionFee",
          "type": "uint256"
        }
      ],
      "name": "depositUniUsdcGmxV2",
      "outputs": [],
      "stateMutability": "payable",
      "type": "function"
    },
    {
      "inputs": [],
      "name": "extractTimestampsAndAssertAllAreEqual",
      "outputs": [
        {
          "internalType": "uint256",
          "name": "extractedTimestamp",
          "type": "uint256"
        }
      ],
      "stateMutability": "pure",
      "type": "function"
    },
    {
      "inputs": [
        {
          "internalType": "address",
          "name": "gmToken",
          "type": "address"
        }
      ],
      "name": "getGmPerformance",
      "outputs": [
        {
          "internalType": "uint256",
          "name": "",
          "type": "uint256"
        }
      ],
      "stateMutability": "view",
      "type": "function"
    },
    {
      "inputs": [
        {
          "internalType": "bytes32",
          "name": "symbol",
          "type": "bytes32"
        }
      ],
      "name": "getPrice",
      "outputs": [
        {
          "internalType": "uint256",
          "name": "price",
          "type": "uint256"
        }
      ],
      "stateMutability": "view",
      "type": "function"
    },
    {
      "inputs": [
        {
          "internalType": "address",
          "name": "gmToken",
          "type": "address"
        }
      ],
      "name": "initiateGmxFeesBenchMark",
      "outputs": [],
      "stateMutability": "nonpayable",
      "type": "function"
    },
    {
      "inputs": [
        {
          "internalType": "address",
          "name": "gmToken",
          "type": "address"
        }
      ],
      "name": "sweepFeesAndUpdateBenchMark",
      "outputs": [
        {
          "internalType": "uint256",
          "name": "gmTokensInFees",
          "type": "uint256"
        }
      ],
      "stateMutability": "nonpayable",
      "type": "function"
    },
    {
      "inputs": [
        {
          "internalType": "uint256",
          "name": "gmAmount",
          "type": "uint256"
        },
        {
          "internalType": "uint256",
          "name": "minLongTokenAmount",
          "type": "uint256"
        },
        {
          "internalType": "uint256",
          "name": "minShortTokenAmount",
          "type": "uint256"
        },
        {
          "internalType": "uint256",
          "name": "executionFee",
          "type": "uint256"
        }
      ],
      "name": "withdrawArbUsdcGmxV2",
      "outputs": [],
      "stateMutability": "payable",
      "type": "function"
    },
    {
      "inputs": [
        {
          "internalType": "uint256",
          "name": "gmAmount",
          "type": "uint256"
        },
        {
          "internalType": "uint256",
          "name": "minLongTokenAmount",
          "type": "uint256"
        },
        {
          "internalType": "uint256",
          "name": "minShortTokenAmount",
          "type": "uint256"
        },
        {
          "internalType": "uint256",
          "name": "executionFee",
          "type": "uint256"
        }
      ],
      "name": "withdrawAtomUsdcGmxV2",
      "outputs": [],
      "stateMutability": "payable",
      "type": "function"
    },
    {
      "inputs": [
        {
          "internalType": "uint256",
          "name": "gmAmount",
          "type": "uint256"
        },
        {
          "internalType": "uint256",
          "name": "minLongTokenAmount",
          "type": "uint256"
        },
        {
          "internalType": "uint256",
          "name": "minShortTokenAmount",
          "type": "uint256"
        },
        {
          "internalType": "uint256",
          "name": "executionFee",
          "type": "uint256"
        }
      ],
      "name": "withdrawBtcUsdcGmxV2",
      "outputs": [],
      "stateMutability": "payable",
      "type": "function"
    },
    {
      "inputs": [
        {
          "internalType": "uint256",
          "name": "gmAmount",
          "type": "uint256"
        },
        {
          "internalType": "uint256",
          "name": "minLongTokenAmount",
          "type": "uint256"
        },
        {
          "internalType": "uint256",
          "name": "minShortTokenAmount",
          "type": "uint256"
        },
        {
          "internalType": "uint256",
          "name": "executionFee",
          "type": "uint256"
        }
      ],
      "name": "withdrawEthUsdcGmxV2",
      "outputs": [],
      "stateMutability": "payable",
      "type": "function"
    },
    {
      "inputs": [
        {
          "internalType": "uint256",
          "name": "gmAmount",
          "type": "uint256"
        },
        {
          "internalType": "uint256",
          "name": "minLongTokenAmount",
          "type": "uint256"
        },
        {
          "internalType": "uint256",
          "name": "minShortTokenAmount",
          "type": "uint256"
        },
        {
          "internalType": "uint256",
          "name": "executionFee",
          "type": "uint256"
        }
      ],
      "name": "withdrawGmxUsdcGmxV2",
      "outputs": [],
      "stateMutability": "payable",
      "type": "function"
    },
    {
      "inputs": [
        {
          "internalType": "uint256",
          "name": "gmAmount",
          "type": "uint256"
        },
        {
          "internalType": "uint256",
          "name": "minLongTokenAmount",
          "type": "uint256"
        },
        {
          "internalType": "uint256",
          "name": "minShortTokenAmount",
          "type": "uint256"
        },
        {
          "internalType": "uint256",
          "name": "executionFee",
          "type": "uint256"
        }
      ],
      "name": "withdrawLinkUsdcGmxV2",
      "outputs": [],
      "stateMutability": "payable",
      "type": "function"
    },
    {
      "inputs": [
        {
          "internalType": "uint256",
          "name": "gmAmount",
          "type": "uint256"
        },
        {
          "internalType": "uint256",
          "name": "minLongTokenAmount",
          "type": "uint256"
        },
        {
          "internalType": "uint256",
          "name": "minShortTokenAmount",
          "type": "uint256"
        },
        {
          "internalType": "uint256",
          "name": "executionFee",
          "type": "uint256"
        }
      ],
      "name": "withdrawNearUsdcGmxV2",
      "outputs": [],
      "stateMutability": "payable",
      "type": "function"
    },
    {
      "inputs": [
        {
          "internalType": "uint256",
          "name": "gmAmount",
          "type": "uint256"
        },
        {
          "internalType": "uint256",
          "name": "minLongTokenAmount",
          "type": "uint256"
        },
        {
          "internalType": "uint256",
          "name": "minShortTokenAmount",
          "type": "uint256"
        },
        {
          "internalType": "uint256",
          "name": "executionFee",
          "type": "uint256"
        }
      ],
      "name": "withdrawSeiUsdcGmxV2",
      "outputs": [],
      "stateMutability": "payable",
      "type": "function"
    },
    {
      "inputs": [
        {
          "internalType": "uint256",
          "name": "gmAmount",
          "type": "uint256"
        },
        {
          "internalType": "uint256",
          "name": "minLongTokenAmount",
          "type": "uint256"
        },
        {
          "internalType": "uint256",
          "name": "minShortTokenAmount",
          "type": "uint256"
        },
        {
          "internalType": "uint256",
          "name": "executionFee",
          "type": "uint256"
        }
      ],
      "name": "withdrawSolUsdcGmxV2",
      "outputs": [],
      "stateMutability": "payable",
      "type": "function"
    },
    {
      "inputs": [
        {
          "internalType": "uint256",
          "name": "gmAmount",
          "type": "uint256"
        },
        {
          "internalType": "uint256",
          "name": "minLongTokenAmount",
          "type": "uint256"
        },
        {
          "internalType": "uint256",
          "name": "minShortTokenAmount",
          "type": "uint256"
        },
        {
          "internalType": "uint256",
          "name": "executionFee",
          "type": "uint256"
        }
      ],
      "name": "withdrawSuiUsdcGmxV2",
      "outputs": [],
      "stateMutability": "payable",
      "type": "function"
    },
    {
      "inputs": [
        {
          "internalType": "uint256",
          "name": "gmAmount",
          "type": "uint256"
        },
        {
          "internalType": "uint256",
          "name": "minLongTokenAmount",
          "type": "uint256"
        },
        {
          "internalType": "uint256",
          "name": "minShortTokenAmount",
          "type": "uint256"
        },
        {
          "internalType": "uint256",
          "name": "executionFee",
          "type": "uint256"
        }
      ],
      "name": "withdrawUniUsdcGmxV2",
      "outputs": [],
      "stateMutability": "payable",
      "type": "function"
    }
  ],
  "transactionHash": "0xd7687226f77211d18764bacdf10d1c812ccf7a0f3c6a48ef98f68cf6592c026a",
  "args": [],
  "numDeployments": 34,
  "solcInputHash": "83d24a4e96a526644a1ce204b15c1d76",
  "bytecode": "0x608060405234801561001057600080fd5b50615fdf80620000216000396000f3fe60806040526004361061017d5760003560e01c80620b46f814610182578063029e5901146101b157806307ef7819146101c65780630c2fa73e146101d95780630d5723dc146101ec5780631206498a146101ff578063183b563d146102125780631eafb555146102255780633161805f1461023857806331d98b3f1461024b57806339e2719e1461026b5780633e0055a314610280578063448f70a3146102935780635251cdb1146102b3578063530b3977146102c657806355a547d5146102db5780635d5d5a53146102f0578063643e2cd51461030357806368778983146103165780637088e3791461033657806381bb5ad21461034b57806382fac5041461035e5780638f6c4ee214610371578063a189c38614610384578063a97526c914610397578063b2d40e73146103aa578063b713427a146103d7578063cb95294f146103ea578063d76f883a146103fd578063d9afe7f614610410578063d9fdad2f14610430578063e821858414610450578063ecee486314610463575b600080fd5b34801561018e57600080fd5b5061019e67016345785d8a000081565b6040519081526020015b60405180910390f35b6101c46101bf3660046150af565b610476565b005b6101c46101d43660046150ea565b6104d1565b6101c46101e73660046150ea565b6104f8565b6101c46101fa3660046150af565b610519565b6101c461020d3660046150ea565b61056d565b6101c46102203660046150ea565b61058e565b6101c46102333660046150af565b6105af565b6101c46102463660046150af565b610603565b34801561025757600080fd5b5061019e61026636600461511c565b610657565b34801561027757600080fd5b5061019e6106d3565b6101c461028e3660046150ea565b61072e565b34801561029f57600080fd5b5061019e6102ae366004615277565b61074f565b6101c46102c13660046150ea565b6107b5565b3480156102d257600080fd5b5061019e6107d6565b3480156102e757600080fd5b5061019e610819565b6101c46102fe3660046150ea565b610931565b6101c46103113660046150ea565b610952565b34801561032257600080fd5b5061019e610331366004615388565b610973565b34801561034257600080fd5b5061019e610b38565b6101c46103593660046150af565b610b7b565b6101c461036c3660046150af565b610bcf565b6101c461037f3660046150af565b610c23565b6101c46103923660046150af565b610c77565b6101c46103a53660046150af565b610ccb565b3480156103b657600080fd5b506103ca6103c53660046153a5565b610d1f565b6040516101a8919061547b565b6101c46103e53660046150ea565b610d91565b6101c46103f83660046150af565b610db2565b6101c461040b3660046150af565b610e06565b34801561041c57600080fd5b5061019e61042b366004615388565b610e5a565b34801561043c57600080fd5b506101c461044b366004615388565b610e87565b6101c461045e3660046150ea565b611047565b6101c46104713660046150ea565b611068565b60008461049157600080516020615f6a8339815191526104a7565b7382af49447d8a07e3bd95bd0d56f35241523fbab15b90506104ca73248c35760068ce009a13076d573ed3497a47bcd482868686611089565b5050505050565b6104f273c7abb2c5f3bf3ceb389df0eecd6120d451170b5085858585611c3f565b50505050565b6104f27309400d9db990d5ed3f35d7be61dfaeb900af03c985858585611c3f565b60008461053457600080516020615f6a83398151915261054a565b73fc5a1a6eb076a2c7ad06ed22c90d7e710e35ad0a5b90506104ca7355391d178ce46e7ac8eaaea50a72d1a5a8a622da82868686611089565b6104f2737f1fa204bb700853d36994da19f830b6ad18455c85858585611c3f565b6104f27347c031236e19d024b42f8ae6780e44a57317070385858585611c3f565b6000846105ca57600080516020615f6a8339815191526105e0565b732bcc6d6cdbbdc0a4071e48bb3b969b06b3330c075b90506104ca7309400d9db990d5ed3f35d7be61dfaeb900af03c982868686611089565b60008461061e57600080516020615f6a833981519152610634565b7382af49447d8a07e3bd95bd0d56f35241523fbab15b90506104ca7363dc80ee90f26363b3fcd609007cc9e14c8991be82868686611089565b60006106ba61066c6331d98b3f60e01b612bed565b604051602481018590526331d98b3f60e01b906044015b60408051601f198184030181529190526020810180516001600160e01b03166001600160e01b031990931692909217909152612c6b565b8060200190518101906106cd919061550d565b92915050565b60006107166106e8637914334f60e01b612bed565b6040805160048152602481019091526020810180516001600160e01b0316637914334f60e01b179052612cee565b806020019051810190610729919061550d565b905090565b6104f273b489711b1cb86afda48924730084e23310eb488385858585611c3f565b60006106ba61076463065b651960e11b612bed565b60405163065b651960e11b9061077e90869060240161547b565b60408051601f198184030181529190526020810180516001600160e01b03166001600160e01b031990931692909217909152612cee565b6104f273c25cef6061cf5de5eb761b50e4743c1f5d7e540785858585611c3f565b60006107166107eb63fd4344cd60e01b612bed565b6040805160048152602481019091526020810180516001600160e01b031663fd4344cd60e01b179052612cee565b600080610824612d53565b9050600061083182612dfa565b61ffff1690508060000361085857604051632154bfcf60e21b815260040160405180910390fd5b61086360028361553c565b915060005b8181101561092b57600061087b84612e34565b905060008061088b60688761553c565b90506000610899823661554f565b9050803592508265ffffffffffff166000036108c857604051630336dc9d60e41b815260040160405180910390fd5b876000036108e0578265ffffffffffff169750610908565b878365ffffffffffff16146109085760405163d9d1f46560e01b815260040160405180910390fd5b610912848861553c565b965050505050808061092390615562565b915050610868565b50505090565b6104f27363dc80ee90f26363b3fcd609007cc9e14c8991be85858585611c3f565b6104f2736ecf2133e2c9751caadcb6958b9654bae198a79785858585611c3f565b60008061097e612e70565b8054909150600119016109ac5760405162461bcd60e51b81526004016109a39061557b565b60405180910390fd5b600281556109b8612e94565b6001600160a01b031663e319fccc336040518263ffffffff1660e01b81526004016109e391906155bf565b602060405180830381865afa158015610a00573d6000803e3d6000fd5b505050506040513d601f19601f82011682018060405250810190610a2491906155d3565b610a41576040516312dcff0560e01b815260040160405180910390fd5b6000610a4c84612eac565b90506000610a5982613436565b9050610a658582613462565b9350610a7185836134f9565b60408051858152600060208201524281830152905133916001600160a01b038816917fc1b12c432e8fc0a7ffbe99043a690035e07fcd52ba0c6ef77355ee8149079bc59181900360600190a35050610ac7613597565b610b2f5760405162461bcd60e51b815260206004820152603360248201527f54686520616374696f6e206d617920636175736520616e206163636f756e74206044820152721d1bc8189958dbdb59481a5b9cdbdb1d995b9d606a1b60648201526084016109a3565b60019055919050565b6000610716610b4d63caacc76160e01b612bed565b6040805160048152602481019091526020810180516001600160e01b031663caacc76160e01b179052612cee565b600084610b9657600080516020615f6a833981519152610bac565b7382af49447d8a07e3bd95bd0d56f35241523fbab15b90506104ca736ecf2133e2c9751caadcb6958b9654bae198a79782868686611089565b600084610bea57600080516020615f6a833981519152610c00565b73912ce59144191c1204e64559fe8253a0e49e65485b90506104ca73c25cef6061cf5de5eb761b50e4743c1f5d7e540782868686611089565b600084610c3e57600080516020615f6a833981519152610c54565b7382af49447d8a07e3bd95bd0d56f35241523fbab15b90506104ca7370d95587d40a2caf56bd97485ab3eec10bee633682868686611089565b600084610c9257600080516020615f6a833981519152610ca8565b73f97f4df75117a78c1a5a0dbb814af92458539fb45b90506104ca737f1fa204bb700853d36994da19f830b6ad18455c82868686611089565b600084610ce657600080516020615f6a833981519152610cfc565b732f2a2543b76a4166549f7aab2e75bef0aefc5b0f5b90506104ca7347c031236e19d024b42f8ae6780e44a57317070382868686611089565b610d516040518060a0016040528060608152602001606081526020016060815260200160608152602001606081525090565b610d7e610d646351d5468f60e11b612bed565b6040516351d5468f60e11b9061077e908690602401615620565b8060200190518101906106cd91906156b2565b6104f27370d95587d40a2caf56bd97485ab3eec10bee633685858585611c3f565b600084610dcd57600080516020615f6a833981519152610de3565b7382af49447d8a07e3bd95bd0d56f35241523fbab15b90506104ca73b489711b1cb86afda48924730084e23310eb488382868686611089565b600084610e2157600080516020615f6a833981519152610e37565b73fa7f8980b0f1e64a2062791cc3b0871572f1f7f05b90506104ca73c7abb2c5f3bf3ceb389df0eecd6120d451170b5082868686611089565b600080610e66836135ed565b9050610e8083826000015183602001518460400151613627565b9392505050565b610e8f612e94565b6001600160a01b031663e319fccc336040518263ffffffff1660e01b8152600401610eba91906155bf565b602060405180830381865afa158015610ed7573d6000803e3d6000fd5b505050506040513d601f19601f82011682018060405250810190610efb91906155d3565b610f18576040516312dcff0560e01b815260040160405180910390fd5b6000610f22612e70565b805490915060011901610f475760405162461bcd60e51b81526004016109a39061557b565b600281556000610f5683612eac565b90506000610f6382613436565b9050600080610f7c8684866060015187608001516137b0565b91509150600060405180610100016040528086600001518152602001848152602001838152602001866020015181526020018660400151815260200142815260200186606001516001600160a01b0316815260200186608001516001600160a01b03168152509050610fee8782613c0a565b60a085015160408051911515825242602083015233916001600160a01b038a16917fe83e9c1f53822f2dfe76706e8d8b24d15d8ad7b54929d22bfa591d72392c71f0910160405180910390a35050600190935550505050565b6104f273248c35760068ce009a13076d573ed3497a47bcd485858585611c3f565b6104f27355391d178ce46e7ac8eaaea50a72d1a5a8a622da85858585611c3f565b6000611093612e70565b8054909150600119016110b85760405162461bcd60e51b81526004016109a39061557b565b6002815560006110c6613e7a565b9050428160060154036110eb5760405162461bcd60e51b81526004016109a39061579f565b506110f4613e9e565b3482146111145760405163feced27f60e01b815260040160405180910390fd5b600061111e613f15565b60405162f7fbdf60e61b81529091506001600160a01b03821690633dfef7c09061114c908a906004016155bf565b602060405180830381865afa158015611169573d6000803e3d6000fd5b505050506040513d601f19601f8201168201806040525081019061118d91906155d3565b6111a9576040516280923760e31b815260040160405180910390fd5b6040516335923e0360e01b81526001600160a01b038216906335923e03906111d59089906004016155bf565b602060405180830381865afa1580156111f2573d6000803e3d6000fd5b505050506040513d601f19601f8201168201806040525081019061121691906155d3565b6112335760405163d0c0ba1f60e01b815260040160405180910390fd5b6040516370a0823160e01b815285906001600160a01b038816906370a08231906112619030906004016155bf565b602060405180830381865afa15801561127e573d6000803e3d6000fd5b505050506040513d601f19601f820116820180604052508101906112a2919061550d565b106112ad578461131a565b6040516370a0823160e01b81526001600160a01b038716906370a08231906112d99030906004016155bf565b602060405180830381865afa1580156112f6573d6000803e3d6000fd5b505050506040513d601f19601f8201168201806040525081019061131a919061550d565b94508460000361133d5760405163078e1d8560e01b815260040160405180910390fd5b846113b3826001600160a01b031663f823f1e0896040518263ffffffff1660e01b815260040161136d91906155bf565b602060405180830381865afa15801561138a573d6000803e3d6000fd5b505050506040513d601f19601f820116820180604052508101906113ae919061550d565b613f2d565b10156113d257604051631e9acf1760e31b815260040160405180910390fd5b60006113dd88612eac565b6040805160608101825282518152602080840151908201528183015191810191909152909150600061140e8a613f5d565b90508060c001511561148a5760006114268b84613462565b90508015611488578a6001600160a01b0316600080516020615f8a833981519152824260405161147f9291909182526060602083018190526007908301526619195c1bdcda5d60ca1b6080830152604082015260a00190565b60405180910390a25b505b5060408051600380825260808201909252600091816020015b60608152602001906001900390816114a3579050509050637d39aaf160e01b6114ca61406e565b876040516024016114dc9291906157f0565b604051602081830303815290604052906001600160e01b0319166020820180516001600160e01b0383818316178352505050508160008151811061152257611522615809565b6020908102919091010152631cdacd5960e31b8961153e61406e565b8a6040516024016115519392919061581f565b604051602081830303815290604052906001600160e01b0319166020820180516001600160e01b0383818316178352505050508160018151811061159757611597615809565b602090810291909101810191909152604080516101c0810182523060c0820181815260e0830191909152600061010083018190526001600160a01b038f811661012085015260608981015182166101408601526080808b015190921661016086015285518381528088018752610180860152855183815280880187526101a08601529284528386018d90528385018290529183018b9052620927c0918301919091528251908152928301825260a08101929092525163c82aa41b60e01b916116619160240161587c565b604051602081830303815290604052906001600160e01b0319166020820180516001600160e01b038381831617835250505050816002815181106116a7576116a7615809565b60200260200101819052506116cf6116bd614086565b6001600160a01b038b1690600061409e565b6116eb6116da614086565b6001600160a01b038b16908a61409e565b6116f36141c8565b6001600160a01b031663ac9650d834836040518363ffffffff1660e01b815260040161171f91906159e1565b60006040518083038185885af115801561173d573d6000803e3d6000fd5b50505050506040513d6000823e601f3d908101601f191682016040526117669190810190615a43565b5050600082606001516001600160a01b0316896001600160a01b031614611791578260400151611797565b82602001515b90506118a5896001600160a01b031663313ce5676040518163ffffffff1660e01b8152600401602060405180830381865afa1580156117da573d6000803e3d6000fd5b505050506040513d601f19601f820116820180604052508101906117fe9190615b46565b61180990600a615c4d565b6118138a84615c5c565b61181d9190615c73565b8b6001600160a01b031663313ce5676040518163ffffffff1660e01b8152600401602060405180830381865afa15801561185b573d6000803e3d6000fd5b505050506040513d601f19601f8201168201806040525081019061187f9190615b46565b61188a90600a615c4d565b8551611896908b615c5c565b6118a09190615c73565b6141e0565b6118c25760405163187831eb60e21b815260040160405180910390fd5b60008a6001600160a01b031663313ce5676040518163ffffffff1660e01b8152600401602060405180830381865afa158015611902573d6000803e3d6000fd5b505050506040513d601f19601f820116820180604052508101906119269190615b46565b61193190600a615c4d565b61193f906305f5e100615c5c565b856001600160a01b0316632c1fac25611956614234565b8e6040518363ffffffff1660e01b8152600401611974929190615c95565b602060405180830381865afa158015611991573d6000803e3d6000fd5b505050506040513d601f19601f820116820180604052508101906119b5919061550d565b85516119c2908b90615c5c565b6119cc9190615c5c565b6119d69190615c73565b90506119e061425c565b816119e9610b38565b6119f3919061553c565b11611a1157604051632ea9323760e11b815260040160405180910390fd5b5050611a1d89836134f9565b611a268961429f565b6040516307c11f8f60e51b81526001600160a01b03841690639ab5204590829063f823f1e090611a5a908e906004016155bf565b602060405180830381865afa158015611a77573d6000803e3d6000fd5b505050506040513d601f19601f82011682018060405250810190611a9b919061550d565b308c6001600160a01b031663313ce5676040518163ffffffff1660e01b8152600401602060405180830381865afa158015611ada573d6000803e3d6000fd5b505050506040513d601f19601f82011682018060405250810190611afe9190615b46565b611b0990600a615c4d565b611b1b8b670de0b6b3a7640000615c5c565b611b259190615c73565b6040518463ffffffff1660e01b8152600401611b4393929190615ccf565b600060405180830381600087803b158015611b5d57600080fd5b505af1158015611b71573d6000803e3d6000fd5b50505050611b7f8389614346565b60408051888152602081018890529081018690524260608201526001600160a01b03808a1691908b16907f806fc3ebbba812c124b6955d55801992521cfffcbce266dff2f93a46934256699060800160405180910390a35050506000611be361450d565b805490915015611c335760405162461bcd60e51b815260206004820152601b60248201527a1058d8dbdd5b9d081a5cc818995a5b99c81b1a5c5d5a59185d1959602a1b60448201526064016109a3565b50600190555050505050565b6000611c49612e70565b805490915060011901611c6e5760405162461bcd60e51b81526004016109a39061557b565b600281556000611c7c613e7a565b905042816006015403611ca15760405162461bcd60e51b81526004016109a39061579f565b506000611cac612e94565b6001600160a01b031663e319fccc336040518263ffffffff1660e01b8152600401611cd791906155bf565b602060405180830381865afa158015611cf4573d6000803e3d6000fd5b505050506040513d601f19601f82011682018060405250810190611d1891906155d3565b90508015611da0576000611d2a61450d565b8054909150611d9a5760405162461bcd60e51b815260206004820152603660248201527f4e6f20696e736f6c76656e637920736e617073686f74202d2063616c6c20736e604482015275185c1cda1bdd125b9cdbdb1d995b98de48199a5c9cdd60521b60648201526084016109a3565b50611da8565b611da8613e9e565b348314611dc85760405163feced27f60e01b815260040160405180910390fd5b6000611dd2613f15565b60405162f7fbdf60e61b81529091506001600160a01b03821690633dfef7c090611e00908b906004016155bf565b602060405180830381865afa158015611e1d573d6000803e3d6000fd5b505050506040513d601f19601f82011682018060405250810190611e4191906155d3565b611e5d576040516280923760e31b815260040160405180910390fd5b6040516370a0823160e01b815287906001600160a01b038a16906370a0823190611e8b9030906004016155bf565b602060405180830381865afa158015611ea8573d6000803e3d6000fd5b505050506040513d601f19601f82011682018060405250810190611ecc919061550d565b10611ed75786611f44565b6040516370a0823160e01b81526001600160a01b038916906370a0823190611f039030906004016155bf565b602060405180830381865afa158015611f20573d6000803e3d6000fd5b505050506040513d601f19601f82011682018060405250810190611f44919061550d565b965086600003611f675760405163bd51224160e01b815260040160405180910390fd5b86611f97826001600160a01b031663f823f1e08b6040518263ffffffff1660e01b815260040161136d91906155bf565b1015611fb657604051631e9acf1760e31b815260040160405180910390fd5b6000611fc189612eac565b90506000611fce82613436565b90506000611fdb8b613f5d565b90508060c0015115612084576000611ff38c84613462565b9050801561208257808b1161201b57604051637004dc4b60e01b815260040160405180910390fd5b612025818c61554f565b9a508b6001600160a01b0316600080516020615f8a833981519152824260405161207992919091825260606020830181905260089083015267776974686472617760c01b6080830152604082015260a00190565b60405180910390a25b505b5060408051600380825260808201909252600091816020015b606081526020019060019003908161209d579050509050637d39aaf160e01b6120c4614531565b886040516024016120d69291906157f0565b604051602081830303815290604052906001600160e01b0319166020820180516001600160e01b0383818316178352505050508160008151811061211c5761211c615809565b6020908102919091010152631cdacd5960e31b8b612138614531565b8c60405160240161214b9392919061581f565b604051602081830303815290604052906001600160e01b0319166020820180516001600160e01b0383818316178352505050508160018151811061219157612191615809565b6020908102919091010152604080516101a081019091523060e08201818152610100830191909152600061012083018190526001600160a01b038e1661014084015263e78dc23560e01b9291829161016083019060405190808252806020026020018201604052801561220e578160200160208202803683370190505b508152602001600060405190808252806020026020018201604052801561223f578160200160208202803683370190505b5081525081526020018b81526020018a8152602001600015158152602001898152602001620927c0815260200160006001600160401b0381111561228557612285615135565b6040519080825280602002602001820160405280156122ae578160200160208202803683370190505b5090526040516122c19190602401615cee565b604051602081830303815290604052906001600160e01b0319166020820180516001600160e01b0383818316178352505050508160028151811061230757612307615809565b60200260200101819052508a6001600160a01b031663095ea7b3612329614086565b8c6040518363ffffffff1660e01b81526004016123479291906157f0565b6020604051808303816000875af1158015612366573d6000803e3d6000fd5b505050506040513d601f19601f8201168201806040525081019061238a91906155d3565b506123936141c8565b6001600160a01b031663ac9650d834836040518363ffffffff1660e01b81526004016123bf91906159e1565b60006040518083038185885af11580156123dd573d6000803e3d6000fd5b50505050506040513d6000823e601f3d908101601f191682016040526124069190810190615a43565b506125ae8b6001600160a01b031663313ce5676040518163ffffffff1660e01b8152600401602060405180830381865afa158015612448573d6000803e3d6000fd5b505050506040513d601f19601f8201168201806040525081019061246c9190615b46565b61247790600a615c4d565b8451612484908d90615c5c565b61248e9190615c73565b84608001516001600160a01b031663313ce5676040518163ffffffff1660e01b8152600401602060405180830381865afa1580156124d0573d6000803e3d6000fd5b505050506040513d601f19601f820116820180604052508101906124f49190615b46565b6124ff90600a615c4d565b8a866040015161250f9190615c5c565b6125199190615c73565b85606001516001600160a01b031663313ce5676040518163ffffffff1660e01b8152600401602060405180830381865afa15801561255b573d6000803e3d6000fd5b505050506040513d601f19601f8201168201806040525081019061257f9190615b46565b61258a90600a615c4d565b8c876020015161259a9190615c5c565b6125a49190615c73565b6118a0919061553c565b6125cb5760405163187831eb60e21b815260040160405180910390fd5b6125d3612e94565b6001600160a01b031663e319fccc336040518263ffffffff1660e01b81526004016125fe91906155bf565b602060405180830381865afa15801561261b573d6000803e3d6000fd5b505050506040513d601f19601f8201168201806040525081019061263f91906155d3565b6128b95760006305f5e10084608001516001600160a01b031663313ce5676040518163ffffffff1660e01b8152600401602060405180830381865afa15801561268c573d6000803e3d6000fd5b505050506040513d601f19601f820116820180604052508101906126b09190615b46565b6126bb90600a615c4d565b866001600160a01b0316632c1fac256126d2614234565b88608001516040518363ffffffff1660e01b81526004016126f4929190615c95565b602060405180830381865afa158015612711573d6000803e3d6000fd5b505050506040513d601f19601f82011682018060405250810190612735919061550d565b8b87604001516127459190615c5c565b61274f9190615c5c565b6127599190615c73565b85606001516001600160a01b031663313ce5676040518163ffffffff1660e01b8152600401602060405180830381865afa15801561279b573d6000803e3d6000fd5b505050506040513d601f19601f820116820180604052508101906127bf9190615b46565b6127ca90600a615c4d565b876001600160a01b0316632c1fac256127e1614234565b89606001516040518363ffffffff1660e01b8152600401612803929190615c95565b602060405180830381865afa158015612820573d6000803e3d6000fd5b505050506040513d601f19601f82011682018060405250810190612844919061550d565b8d88602001516128549190615c5c565b61285e9190615c5c565b6128689190615c73565b612872919061553c565b61287c9190615c73565b905061288661425c565b8161288f610b38565b612899919061553c565b116128b757604051632ea9323760e11b815260040160405180910390fd5b505b6128c28b61429f565b6128cc8b846134f9565b60608301516040516307c11f8f60e51b81526001600160a01b03861691639ab5204591839163f823f1e09161290491906004016155bf565b602060405180830381865afa158015612921573d6000803e3d6000fd5b505050506040513d601f19601f82011682018060405250810190612945919061550d565b3086606001516001600160a01b031663313ce5676040518163ffffffff1660e01b8152600401602060405180830381865afa158015612988573d6000803e3d6000fd5b505050506040513d601f19601f820116820180604052508101906129ac9190615b46565b6129b790600a615c4d565b6129c98e670de0b6b3a7640000615c5c565b6129d39190615c73565b6040518463ffffffff1660e01b81526004016129f193929190615ccf565b600060405180830381600087803b158015612a0b57600080fd5b505af1158015612a1f573d6000803e3d6000fd5b50505060808401516040516307c11f8f60e51b81526001600160a01b0387169250639ab5204591839163f823f1e091612a5a916004016155bf565b602060405180830381865afa158015612a77573d6000803e3d6000fd5b505050506040513d601f19601f82011682018060405250810190612a9b919061550d565b3086608001516001600160a01b031663313ce5676040518163ffffffff1660e01b8152600401602060405180830381865afa158015612ade573d6000803e3d6000fd5b505050506040513d601f19601f82011682018060405250810190612b029190615b46565b612b0d90600a615c4d565b612b1f8d670de0b6b3a7640000615c5c565b612b299190615c73565b6040518463ffffffff1660e01b8152600401612b4793929190615ccf565b600060405180830381600087803b158015612b6157600080fd5b505af1158015612b75573d6000803e3d6000fd5b50505050612b83848c614346565b604080518b8152602081018b9052908101899052606081018890524260808201526001600160a01b038c16907f6ab780bbc4d6735d5525e629510825e7840ff1e79d4c4e944fa1e3137b0f253a9060a00160405180910390a2505060019093555050505050505050565b6000612bf7612e94565b604051630d74157760e01b81526001600160e01b0319841660048201526001600160a01b039190911690630d74157790602401602060405180830381865afa158015612c47573d6000803e3d6000fd5b505050506040513d601f19601f820116820180604052508101906106cd9190615dcb565b60606000612c7883614549565b9050600080856001600160a01b031683604051612c959190615de8565b600060405180830381855afa9150503d8060008114612cd0576040519150601f19603f3d011682016040523d82523d6000602084013e612cd5565b606091505b5091509150612ce482826145d8565b9695505050505050565b60606000612cfb83614549565b9050600080856001600160a01b031683604051612d189190615de8565b600060405180830381855af49150503d8060008114612cd0576040519150601f19603f3d011682016040523d82523d6000602084013e612cd5565b60006602ed57011e0000601f1936013581161480612d84576040516373bb264f60e11b815260040160405180910390fd5b60003660291115612da857604051632bcb7bc560e11b815260040160405180910390fd5b5060281936013560006009612dc3600362ffffff851661553c565b612dcd919061553c565b905036612ddb60028361553c565b1115610e805760405163c30a7bd760e01b815260040160405180910390fd5b600080612e0860208461553c565b905036811115612e2b57604051632bcb7bc560e11b815260040160405180910390fd5b36033592915050565b6000806000612e4284614655565b9092509050604e612e5482602061553c565b612e5e9084615c5c565b612e68919061553c565b949350505050565b7f1c85eba10a4cf2d29c83fc15f97931886b9fd3caeb70d8c377aeedc58b919e3b90565b7362cf82fb0484af382714cd09296260edc1dc0c6c90565b6040805160c081018252600080825260208201819052918101829052606081018290526080810182905260a0810182905290612ee6613f15565b90506000816001600160a01b031663f4764149856040518263ffffffff1660e01b8152600401612f1691906155bf565b602060405180830381865afa158015612f33573d6000803e3d6000fd5b505050506040513d601f19601f82011682018060405250810190612f5791906155d3565b60405163714af34b60e01b815290915073470fbc46bcc0f16532691df360a07d8bf5ee07899073fd70de6b91282d8017aa4e741e9ae325cab992d890600090839063714af34b90612fae9085908b90600401615e04565b608060405180830381865afa158015612fcb573d6000803e3d6000fd5b505050506040513d601f19601f82011682018060405250810190612fef9190615e1e565b9050600080851561302e5750506040810151806001600160a01b03811661302957604051630ce5f4c360e01b815260040160405180910390fd5b613075565b5050604081015160608201516001600160a01b038216158061305757506001600160a01b038116155b1561307557604051631043e27760e01b815260040160405180910390fd5b606086156131b957604080516002808252606082018352909160208301908036833750506040516307c11f8f60e51b8152919250506001600160a01b0389169063f823f1e0906130c9908d906004016155bf565b602060405180830381865afa1580156130e6573d6000803e3d6000fd5b505050506040513d601f19601f8201168201806040525081019061310a919061550d565b8160008151811061311d5761311d615809565b60209081029190910101526040516307c11f8f60e51b81526001600160a01b0389169063f823f1e0906131549086906004016155bf565b602060405180830381865afa158015613171573d6000803e3d6000fd5b505050506040513d601f19601f82011682018060405250810190613195919061550d565b816001815181106131a8576131a8615809565b60200260200101818152505061337d565b60408051600380825260808201909252906020820160608036833750506040516307c11f8f60e51b8152919250506001600160a01b0389169063f823f1e090613206908d906004016155bf565b602060405180830381865afa158015613223573d6000803e3d6000fd5b505050506040513d601f19601f82011682018060405250810190613247919061550d565b8160008151811061325a5761325a615809565b60209081029190910101526040516307c11f8f60e51b81526001600160a01b0389169063f823f1e0906132919086906004016155bf565b602060405180830381865afa1580156132ae573d6000803e3d6000fd5b505050506040513d601f19601f820116820180604052508101906132d2919061550d565b816001815181106132e5576132e5615809565b60209081029190910101526040516307c11f8f60e51b81526001600160a01b0389169063f823f1e09061331c9085906004016155bf565b602060405180830381865afa158015613339573d6000803e3d6000fd5b505050506040513d601f19601f8201168201806040525081019061335d919061550d565b8160028151811061337057613370615809565b6020026020010181815250505b6000613388826146ac565b90506040518060c00160405280826000815181106133a8576133a8615809565b60200260200101518152602001826001815181106133c8576133c8615809565b60200260200101518152602001896133fa57826002815181106133ed576133ed615809565b60200260200101516133fd565b60005b8152602001856001600160a01b03168152602001846001600160a01b031681526020018915158152509950505050505050505050919050565b61343e61507d565b50604080516060810182528251815260208084015190820152918101519082015290565b60008061346e84613f5d565b90508060c001516134835760009150506106cd565b8251158061349357506020830151155b156134a25760009150506106cd565b60006134bd85856000015186602001518760400151866146ee565b9050806060015181604001516134d3919061553c565b816020015111156134f1576134ee8585600001518385614843565b92505b505092915050565b600061350482613436565b905060008061351d8584866060015187608001516137b0565b91509150600060405180610100016040528086600001518152602001848152602001838152602001866020015181526020018660400151815260200142815260200186606001516001600160a01b0316815260200186608001516001600160a01b0316815250905061358f8682613c0a565b505050505050565b60006135da6135ac6305ce239560e41b612bed565b6040805160048152602481019091526020810180516001600160e01b03166305ce239560e41b179052612cee565b80602001905181019061072991906155d3565b6135f561507d565b600061360083612eac565b60408051606081018252825181526020808401519082015291810151908201529392505050565b60008061363386613f5d565b90508060c00151158061364857506060810151155b80613657575080606001514211155b15613666576000915050612e68565b6040516370a0823160e01b81526000906001600160a01b038816906370a08231906136959030906004016155bf565b602060405180830381865afa1580156136b2573d6000803e3d6000fd5b505050506040513d601f19601f820116820180604052508101906136d6919061550d565b905060006305f5e1006136e98884615c5c565b6136f39190615c73565b9050600061370a8460200151888660800151614a49565b905060006137218560400151888760a00151614a49565b9050600061372f828461553c565b90508084116137475760009650505050505050612e68565b6000613753828661554f565b90506000876060015142613767919061554f565b9050858161377d84670de0b6b3a7640000615c5c565b61378b906301e13380615c5c565b6137959190615c73565b61379f9190615c73565b9d9c50505050505050505050505050565b60008060006137bd613f15565b90506000876001600160a01b03166318160ddd6040518163ffffffff1660e01b8152600401602060405180830381865afa1580156137ff573d6000803e3d6000fd5b505050506040513d601f19601f82011682018060405250810190613823919061550d565b90506000886001600160a01b03166370a08231306040518263ffffffff1660e01b815260040161385391906155bf565b602060405180830381865afa158015613870573d6000803e3d6000fd5b505050506040513d601f19601f82011682018060405250810190613894919061550d565b90506000876001600160a01b03166370a082318b6040518263ffffffff1660e01b81526004016138c491906155bf565b602060405180830381865afa1580156138e1573d6000803e3d6000fd5b505050506040513d601f19601f82011682018060405250810190613905919061550d565b90506000846001600160a01b031663f47641498c6040518263ffffffff1660e01b815260040161393591906155bf565b602060405180830381865afa158015613952573d6000803e3d6000fd5b505050506040513d601f19601f8201168201806040525081019061397691906155d3565b15613983575060006139f3565b6040516370a0823160e01b81526001600160a01b038916906370a08231906139af908e906004016155bf565b602060405180830381865afa1580156139cc573d6000803e3d6000fd5b505050506040513d601f19601f820116820180604052508101906139f0919061550d565b90505b89516000906305f5e10090613a089087615c5c565b613a129190615c73565b90506000896001600160a01b031663313ce5676040518163ffffffff1660e01b8152600401602060405180830381865afa158015613a54573d6000803e3d6000fd5b505050506040513d601f19601f82011682018060405250810190613a789190615b46565b613a8390600a615c4d565b6305f5e1008d6040015185613a989190615c5c565b613aa29190615c73565b613ab490670de0b6b3a7640000615c5c565b613abe9190615c73565b8b6001600160a01b031663313ce5676040518163ffffffff1660e01b8152600401602060405180830381865afa158015613afc573d6000803e3d6000fd5b505050506040513d601f19601f82011682018060405250810190613b209190615b46565b613b2b90600a615c4d565b6305f5e1008e6020015187613b409190615c5c565b613b4a9190615c73565b613b5c90670de0b6b3a7640000615c5c565b613b669190615c73565b613b70919061553c565b9050600081613b8784670de0b6b3a7640000615c5c565b613b919190615c73565b9050613ba587670de0b6b3a7640000615c5c565b85613bb08884615c5c565b613bba9190615c5c565b613bc49190615c73565b9950613bd887670de0b6b3a7640000615c5c565b84613be38884615c5c565b613bed9190615c5c565b613bf79190615c73565b9850505050505050505094509492505050565b6040516370a0823160e01b81526000906001600160a01b038416906370a0823190613c399030906004016155bf565b602060405180830381865afa158015613c56573d6000803e3d6000fd5b505050506040513d601f19601f82011682018060405250810190613c7a919061550d565b905060006305f5e100836000015183613c939190615c5c565b613c9d9190615c73565b90506000613caa85613f5d565b905060008160c00151159050613d3b604051806101400160405280886001600160a01b0316815260200185815260200187602001518152602001876040015181526020018760c001516001600160a01b031681526020018760e001516001600160a01b0316815260200142815260200187600001518152602001876060015181526020018760800151815250614b4c565b8015613def5782866001600160a01b03167fc797fd06c5eb61bfe244768450d37964270a0266b38d16b0e63162e293721b25876020015188604001518960c001518a60e001518b600001518c606001518d6080015142604051613de298979695949392919097885260208801969096526001600160a01b039485166040880152929093166060860152608085015260a084019190915260c083015260e08201526101000190565b60405180910390a361358f565b82866001600160a01b03167f4ac622163846a3f82e12e8e0c02c1f42cc731faa0c2945b37f703340930d48c08760200151886040015189600001518a606001518b6080015142604051613e6a96959493929190958652602086019490945260408501929092526060840152608083015260a082015260c00190565b60405180910390a3505050505050565b7fc8fcad8db84d3cc18b4c41d551ea0ee66dd599cde068d998e57d5e09332c131c90565b613ea6614ccd565b600101546001600160a01b03163314613f135760405162461bcd60e51b815260206004820152602960248201527f4469616d6f6e6453746f726167654c69623a204d75737420626520636f6e747260448201526830b1ba1037bbb732b960b91b60648201526084016109a3565b565b730a0d954d4b0f0b47a5990c0abd179a90ff74e25590565b60006106ba613f42637cf53b5960e11b612bed565b60405160248101859052637cf53b5960e11b9060440161077e565b613fc76040518061014001604052806000815260200160008152602001600081526020016000815260200160006001600160a01b0316815260200160006001600160a01b031681526020016000151581526020016000815260200160008152602001600081525090565b6000613fd1614cf1565b6001600160a01b03938416600090815260209182526040908190208151610140810183528154815260018201549381019390935260028101549183019190915260038101546060830152600481015485166080830152600581015494851660a0830152600160a01b90940460ff16151560c0820152600684015460e082015260078401546101008201526008909301546101208401525090919050565b73f89e77e8dc11691c9e8757e84aafbcd8a67d7a5590565b737452c558d45f8afc8c83dae62c3f8a5be19c71f690565b600080846001600160a01b031663095ea7b385856040516024016140c39291906157f0565b6040516020818303038152906040529060e01b6020820180516001600160e01b0383818316178352505050506040516140fc9190615de8565b6000604051808303816000865af19150503d8060008114614139576040519150601f19603f3d011682016040523d82523d6000602084013e61413e565b606091505b509150915081801561416857508051158061416857508080602001905181019061416891906155d3565b6104ca5760405162461bcd60e51b815260206004820152602b60248201527f5472616e7366657248656c7065723a3a73616665417070726f76653a2061707060448201526a1c9bdd994819985a5b195960aa1b60648201526084016109a3565b731c3fa76e6e1088bce750f23a5bfcffa1efef6a4190565b60008160646141f085605f615c5c565b6141fa9190615c73565b1115801561421e5750816064614211856069615c5c565b61421b9190615c73565b10155b1561422b575060016106cd565b50600092915050565b7f7a9adddebd88baae7e40094aa6b60b0511f0580f415e30c08b59fe6fb7548dad5460ff1690565b60006107166142716339227f4160e11b612bed565b6040805160048152602481019091526020810180516001600160e01b03166339227f4160e11b179052612cee565b60006142a9614ccd565b905080600801546000146142fb5760405162461bcd60e51b815260206004820152601960248201527820b1b1b7bab73a1034b99030b63932b0b23c90333937bd32b760391b60448201526064016109a3565b42600882018190556040519081526001600160a01b038316907fd8c55bb7341b86d16432d6e126c9447d6c6a11936dc259f7d70201e89f1ab863906020015b60405180910390a25050565b60405163b25bfc0160e01b81526001600160a01b0383169063b25bfc01906143749030908590600401615e04565b600060405180830381600087803b15801561438e57600080fd5b505af11580156143a2573d6000803e3d6000fd5b50506040516370a0823160e01b8152600092506001600160a01b03841691506370a08231906143d59030906004016155bf565b602060405180830381865afa1580156143f2573d6000803e3d6000fd5b505050506040513d601f19601f82011682018060405250810190614416919061550d565b1115614497576040516307c11f8f60e51b8152614493906001600160a01b0384169063f823f1e09061444c9085906004016155bf565b602060405180830381865afa158015614469573d6000803e3d6000fd5b505050506040513d601f19601f8201168201806040525081019061448d919061550d565b82614d15565b5050565b6040516307c11f8f60e51b8152614493906001600160a01b0384169063f823f1e0906144c79085906004016155bf565b602060405180830381865afa1580156144e4573d6000803e3d6000fd5b505050506040513d601f19601f82011682018060405250810190614508919061550d565b614e04565b7f5bd9f2a6abfdcb78e37f3bb90d60590fbdd4c016af182813978c914fec39d57a90565b730628d46b5d145f183adb6ef1f2c97ed1c4701c5590565b80516060906000614558614e50565b90506000614566828461553c565b90503682111561458957604051632bcb7bc560e11b815260040160405180910390fd5b6060604051905081815285602001848101826020015b818310156145b757825181526020928301920161459f565b50505082833603856020018301379190920181016020016040529392505050565b60608261464f57815160000361460157604051632b3ff13d60e11b815260040160405180910390fd5b602082015162461bcd60e51b148015614634576040516301efd04f60e31b815260448401906109a3908290600401615ea2565b8260405163fd36fde360e01b81526004016109a39190615ea2565b50919050565b60008080808061466660418761553c565b9050600061467f61467860208461553c565b3690614ebb565b803594509050614690816003614ebb565b62ffffff9490941697933563ffffffff16965092945050505050565b60606146db6146c1631377241b60e11b612bed565b604051631377241b60e11b90610683908690602401615620565b8060200190518101906106cd9190615eb5565b6147206040518060a0016040528060008152602001600081526020016000815260200160008152602001600081525090565b600061472a613f15565b6040516370a0823160e01b81529091506001600160a01b038816906370a08231906147599030906004016155bf565b602060405180830381865afa158015614776573d6000803e3d6000fd5b505050506040513d601f19601f8201168201806040525081019061479a919061550d565b8083526305f5e100906147ae908890615c5c565b6147b89190615c73565b8260200181815250506147d48360200151868560800151614a49565b8260400181815250506147f08360400151858560a00151614a49565b6060830181905260408301516000916148089161553c565b9050808360200151111561483057808360200151614826919061554f565b6080840152614838565b600060808401525b505095945050505050565b600080670de0b6b3a764000067016345785d8a000085608001516148679190615c5c565b6148719190615c73565b905080600003614885576000915050612e68565b84614894826305f5e100615c5c565b61489e9190615c73565b9150600382101580156148b2575083518211155b15614a3b5760006148c4600384615c73565b905060006148d2828561554f565b60405163a9059cbb60e01b81529091506001600160a01b0389169063a9059cbb9061491790736b9836d18978a2e865a935f12f4f958317da46199086906004016157f0565b6020604051808303816000875af1158015614936573d6000803e3d6000fd5b505050506040513d601f19601f8201168201806040525081019061495a91906155d3565b5060405163a9059cbb60e01b81526001600160a01b0389169063a9059cbb9061499d9073764a9756994f4e6cd9358a6fcd924d566fc2e6669085906004016157f0565b6020604051808303816000875af11580156149bc573d6000803e3d6000fd5b505050506040513d601f19601f820116820180604052508101906149e091906155d3565b506080860151865160408051928352602083019190915242828201525185916001600160a01b038b16917f7169048ac0fa5092b61a37205ccfd5269382afea33491901921d313ebb0d6b8c9181900360600190a35050614a40565b600091505b50949350505050565b6000831580614a56575082155b15614a6357506000610e80565b6000826001600160a01b031663313ce5676040518163ffffffff1660e01b8152600401602060405180830381865afa158015614aa3573d6000803e3d6000fd5b505050506040513d601f19601f82011682018060405250810190614ac79190615b46565b90508060ff16601214614b2a5760128160ff161015614b0757614aeb816012615f3a565b614af690600a615c4d565b614b009086615c5c565b9450614b2a565b614b12601282615f3a565b614b1d90600a615c4d565b614b279086615c73565b94505b6305f5e100614b398587615c5c565b614b439190615c73565b95945050505050565b6000614b56614cf1565b90506040518061014001604052808360200151815260200183604001518152602001836060015181526020018360c00151815260200183608001516001600160a01b031681526020018360a001516001600160a01b031681526020016001151581526020018360e001518152602001836101000151815260200183610120015181525081600001600084600001516001600160a01b03166001600160a01b031681526020019081526020016000206000820151816000015560208201518160010155604082015181600201556060820151816003015560808201518160040160006101000a8154816001600160a01b0302191690836001600160a01b0316021790555060a08201518160050160006101000a8154816001600160a01b0302191690836001600160a01b0316021790555060c08201518160050160146101000a81548160ff02191690831515021790555060e08201518160060155610100820151816007015561012082015181600801559050505050565b7f8d5bb42e0ac1496a2c326edc9c00758985246e6c2bb146d6c2f4a0d509e0960a90565b7f283b2a4d03bccb225a863e20e7f333d968b6323af87aaab8eb8bdbf05de84ca390565b81600003614d5e5760405162461bcd60e51b815260206004820152601660248201527553796d626f6c2063616e6e6f7420626520656d70747960501b60448201526064016109a3565b6001600160a01b038116614daa5760405162461bcd60e51b8152602060048201526013602482015272496e76616c696420416464726573735a65726f60681b60448201526064016109a3565b6000614db4614ccd565b9050614dc4816004018484614ec7565b50827f21eab7d98872eb1399cd56d99a43442b9b50720f3222e49563d2be182c6a6a3f42604051614df791815260200190565b60405180910390a2505050565b6000614e0e614ccd565b9050614e1d8160040183614edd565b50817f82829875fd21462894d9bbb2fdbd4a8c25ceb68425c4835a59ca0e76902def944260405161433a91815260200190565b600080614e5b612d53565b90506000614e6882612dfa565b61ffff169050614e7960028361553c565b915060005b81811015614eb3576000614e9184612e34565b9050614e9d818561553c565b9350508080614eab90615562565b915050614e7e565b509092915050565b6000610e80828461554f565b6000612e6884846001600160a01b038516614ee9565b6000610e808383614f06565b60008281526002840160205260408120829055612e688484614f23565b60008181526002830160205260408120819055610e808383614f2f565b6000610e808383614f3b565b6000610e808383614f8a565b6000818152600183016020526040812054614f82575081546001818101845560008481526020808220909301849055845484825282860190935260409020919091556106cd565b5060006106cd565b60008181526001830160205260408120548015615073576000614fae60018361554f565b8554909150600090614fc29060019061554f565b9050818114615027576000866000018281548110614fe257614fe2615809565b906000526020600020015490508087600001848154811061500557615005615809565b6000918252602080832090910192909255918252600188019052604090208390555b855486908061503857615038615f53565b6001900381819060005260206000200160009055905585600101600086815260200190815260200160002060009055600193505050506106cd565b60009150506106cd565b60405180606001604052806000815260200160008152602001600081525090565b80151581146150ac57600080fd5b50565b600080600080608085870312156150c557600080fd5b84356150d08161509e565b966020860135965060408601359560600135945092505050565b6000806000806080858703121561510057600080fd5b5050823594602084013594506040840135936060013592509050565b60006020828403121561512e57600080fd5b5035919050565b634e487b7160e01b600052604160045260246000fd5b604080519081016001600160401b038111828210171561516d5761516d615135565b60405290565b60405160a081016001600160401b038111828210171561516d5761516d615135565b604051601f8201601f191681016001600160401b03811182821017156151bd576151bd615135565b604052919050565b60006001600160401b038211156151de576151de615135565b5060051b60200190565b600082601f8301126151f957600080fd5b8135602061520e615209836151c5565b615195565b82815260069290921b8401810191818101908684111561522d57600080fd5b8286015b8481101561526c576040818903121561524a5760008081fd5b61525261514b565b813581528482013585820152835291830191604001615231565b509695505050505050565b60006020828403121561528957600080fd5b81356001600160401b03808211156152a057600080fd5b9083019060a082860312156152b457600080fd5b6152bc615173565b8235828111156152cb57600080fd5b6152d7878286016151e8565b8252506020830135828111156152ec57600080fd5b6152f8878286016151e8565b60208301525060408301358281111561531057600080fd5b61531c878286016151e8565b60408301525060608301358281111561533457600080fd5b615340878286016151e8565b60608301525060808301358281111561535857600080fd5b615364878286016151e8565b60808301525095945050505050565b6001600160a01b03811681146150ac57600080fd5b60006020828403121561539a57600080fd5b8135610e8081615373565b600060208083850312156153b857600080fd5b82356001600160401b038111156153ce57600080fd5b8301601f810185136153df57600080fd5b80356153ed615209826151c5565b81815260059190911b8201830190838101908783111561540c57600080fd5b928401925b8284101561542a57833582529284019290840190615411565b979650505050505050565b600081518084526020808501945080840160005b83811015615470578151805188528301518388015260409096019590820190600101615449565b509495945050505050565b602081526000825160a0602084015261549760c0840182615435565b90506020840151601f19808584030160408601526154b58383615435565b925060408601519150808584030160608601526154d28383615435565b925060608601519150808584030160808601526154ef8383615435565b925060808601519150808584030160a0860152506134ee8282615435565b60006020828403121561551f57600080fd5b5051919050565b634e487b7160e01b600052601160045260246000fd5b808201808211156106cd576106cd615526565b818103818111156106cd576106cd615526565b60006001820161557457615574615526565b5060010190565b6020808252601f908201527f5265656e7472616e637947756172643a207265656e7472616e742063616c6c00604082015260600190565b6001600160a01b03169052565b6001600160a01b0391909116815260200190565b6000602082840312156155e557600080fd5b8151610e808161509e565b600081518084526020808501945080840160005b8381101561547057815187529582019590820190600101615604565b602081526000610e8060208301846155f0565b600082601f83011261564457600080fd5b81516020615654615209836151c5565b82815260069290921b8401810191818101908684111561567357600080fd5b8286015b8481101561526c57604081890312156156905760008081fd5b61569861514b565b815181528482015185820152835291830191604001615677565b6000602082840312156156c457600080fd5b81516001600160401b03808211156156db57600080fd5b9083019060a082860312156156ef57600080fd5b6156f7615173565b82518281111561570657600080fd5b61571287828601615633565b82525060208301518281111561572757600080fd5b61573387828601615633565b60208301525060408301518281111561574b57600080fd5b61575787828601615633565b60408301525060608301518281111561576f57600080fd5b61577b87828601615633565b60608301525060808301518281111561579357600080fd5b61536487828601615633565b60208082526031908201527f426f72726f77696e67206d7573742068617070656e20696e2061207374616e6460408201527030b637b732903a3930b739b0b1ba34b7b760791b606082015260800190565b6001600160a01b03929092168252602082015260400190565b634e487b7160e01b600052603260045260246000fd5b6001600160a01b039384168152919092166020820152604081019190915260600190565b600081518084526020808501945080840160005b838110156154705781516001600160a01b031687529582019590820190600101615857565b6020808252825160c08383015280516001600160a01b031660e084015290810151600091906101006158b0818601836155b2565b604083015191506158c56101208601836155b2565b606083015191506158da6101408601836155b2565b608083015191506158ef6101608601836155b2565b60a083015191506159046101808601836155b2565b60c08301519150806101a0860152506159216101e0850182615843565b905060e0820151915060df19848203016101c08501526159418183615843565b915050602084015160408401526040840151615961606085018215159052565b5060608401516080840152608084015160a084015260a0840151601f198483030160c08501526134ee82826155f0565b60005b838110156159ac578181015183820152602001615994565b50506000910152565b600081518084526159cd816020860160208601615991565b601f01601f19169290920160200192915050565b6000602080830181845280855180835260408601915060408160051b870101925083870160005b82811015615a3657603f19888603018452615a248583516159b5565b94509285019290850190600101615a08565b5092979650505050505050565b60006020808385031215615a5657600080fd5b82516001600160401b0380821115615a6d57600080fd5b8185019150601f8681840112615a8257600080fd5b8251615a90615209826151c5565b81815260059190911b84018501908581019089831115615aaf57600080fd5b8686015b83811015615b3857805186811115615acb5760008081fd5b8701603f81018c13615add5760008081fd5b88810151604088821115615af357615af3615135565b615b04828901601f19168c01615195565b8281528e82848601011115615b195760008081fd5b615b28838d8301848701615991565b8652505050918701918701615ab3565b509998505050505050505050565b600060208284031215615b5857600080fd5b815160ff81168114610e8057600080fd5b600181815b80851115615ba4578160001904821115615b8a57615b8a615526565b80851615615b9757918102915b93841c9390800290615b6e565b509250929050565b600082615bbb575060016106cd565b81615bc8575060006106cd565b8160018114615bde5760028114615be857615c04565b60019150506106cd565b60ff841115615bf957615bf9615526565b50506001821b6106cd565b5060208310610133831016604e8410600b8410161715615c27575081810a6106cd565b615c318383615b69565b8060001904821115615c4557615c45615526565b029392505050565b6000610e8060ff841683615bac565b80820281158282048414176106cd576106cd615526565b600082615c9057634e487b7160e01b600052601260045260246000fd5b500490565b6040810160038410615cb757634e487b7160e01b600052602160045260246000fd5b9281526001600160a01b039190911660209091015290565b9283526001600160a01b03919091166020830152604082015260600190565b602081526000825160e0602084015260018060a01b038082511661010085015280602083015116610120850152806040830151166101408501528060608301511661016085015250608081015160c0610180850152615d516101c0850182615843565b905060a0820151915060ff19848203016101a0850152615d718183615843565b91505060208401516040840152604084015160608401526060840151615d9b608085018215159052565b50608084015160a084015260a084015160c084015260c0840151601f198483030160e08501526134ee82826155f0565b600060208284031215615ddd57600080fd5b8151610e8081615373565b60008251615dfa818460208701615991565b9190910192915050565b6001600160a01b0392831681529116602082015260400190565b600060808284031215615e3057600080fd5b604051608081016001600160401b0381118282101715615e5257615e52615135565b6040528251615e6081615373565b81526020830151615e7081615373565b60208201526040830151615e8381615373565b60408201526060830151615e9681615373565b60608201529392505050565b602081526000610e8060208301846159b5565b60006020808385031215615ec857600080fd5b82516001600160401b03811115615ede57600080fd5b8301601f81018513615eef57600080fd5b8051615efd615209826151c5565b81815260059190911b82018301908381019087831115615f1c57600080fd5b928401925b8284101561542a57835182529284019290840190615f21565b60ff82811682821603908111156106cd576106cd615526565b634e487b7160e01b600052603160045260246000fdfe000000000000000000000000af88d065e77c8cc2239327c5edb3a432268e58317c7903c3329d7e90a0b1980ec001b337afffc58567e533b761ccfb5cfe8082b6a2646970667358221220fc7afd3213d519c0f6ba3803c5515e3eaf67d38dc3e4e2cb2cb03298248987af64736f6c63430008110033",
  "devdoc": {
    "kind": "dev",
    "methods": {
      "sweepFeesAndUpdateBenchMark(address)": {
        "details": "to be called by the bots, sweeps fees and updates the benchmark"
      }
    },
    "version": 1
  },
  "userdoc": {
    "kind": "user",
    "methods": {},
    "version": 1
  },
  "storageLayout": {
    "storage": [],
    "types": null
  }
}