{
  "address": "0x90aB083De7B2d658652FFd7da9481D768AcC2620",
  "abi": [
    {
      "inputs": [
        {
          "internalType": "address",
          "name": "_primeToken",
          "type": "address"
        },
        {
          "internalType": "address",
          "name": "_rTKNConverter",
          "type": "address"
        },
        {
          "internalType": "uint256",
          "name": "_distributionCap",
          "type": "uint256"
        },
        {
          "internalType": "uint256",
          "name": "_initialDistributed",
          "type": "uint256"
        }
      ],
      "stateMutability": "nonpayable",
      "type": "constructor"
    },
    {
      "anonymous": false,
      "inputs": [
        {
          "indexed": true,
          "internalType": "address",
          "name": "token",
          "type": "address"
        },
        {
          "indexed": true,
          "internalType": "address",
          "name": "recipient",
          "type": "address"
        },
        {
          "indexed": false,
          "internalType": "uint256",
          "name": "amount",
          "type": "uint256"
        }
      ],
      "name": "EmergencyWithdraw",
      "type": "event"
    },
    {
      "anonymous": false,
      "inputs": [
        {
          "indexed": true,
          "internalType": "address",
          "name": "previousOwner",
          "type": "address"
        },
        {
          "indexed": true,
          "internalType": "address",
          "name": "newOwner",
          "type": "address"
        }
      ],
      "name": "OwnershipTransferred",
      "type": "event"
    },
    {
      "anonymous": false,
      "inputs": [
        {
          "indexed": true,
          "internalType": "uint256",
          "name": "round",
          "type": "uint256"
        },
        {
          "indexed": false,
          "internalType": "uint256",
          "name": "totalDistributed",
          "type": "uint256"
        },
        {
          "indexed": false,
          "internalType": "uint256",
          "name": "dust",
          "type": "uint256"
        }
      ],
      "name": "RoundCompleted",
      "type": "event"
    },
    {
      "anonymous": false,
      "inputs": [
        {
          "indexed": true,
          "internalType": "uint256",
          "name": "round",
          "type": "uint256"
        },
        {
          "indexed": false,
          "internalType": "uint256",
          "name": "primeAmount",
          "type": "uint256"
        }
      ],
      "name": "RoundStarted",
      "type": "event"
    },
    {
      "anonymous": false,
      "inputs": [
        {
          "indexed": true,
          "internalType": "uint256",
          "name": "round",
          "type": "uint256"
        },
        {
          "indexed": true,
          "internalType": "address",
          "name": "user",
          "type": "address"
        },
        {
          "indexed": false,
          "internalType": "uint256",
          "name": "amount",
          "type": "uint256"
        }
      ],
      "name": "TokensDistributed",
      "type": "event"
    },
    {
      "anonymous": false,
      "inputs": [
        {
          "indexed": true,
          "internalType": "address",
          "name": "user",
          "type": "address"
        },
        {
          "indexed": false,
          "internalType": "bool",
          "name": "skipped",
          "type": "bool"
        }
      ],
      "name": "UserSkippedStatusChanged",
      "type": "event"
    },
    {
      "anonymous": false,
      "inputs": [
        {
          "indexed": false,
          "internalType": "uint256",
          "name": "totalUsers",
          "type": "uint256"
        },
        {
          "indexed": false,
          "internalType": "uint256",
          "name": "totalShares",
          "type": "uint256"
        }
      ],
      "name": "UsersCached",
      "type": "event"
    },
    {
      "inputs": [
        {
          "internalType": "uint256",
          "name": "batchSize",
          "type": "uint256"
        }
      ],
      "name": "cacheUsers",
      "outputs": [],
      "stateMutability": "nonpayable",
      "type": "function"
    },
    {
      "inputs": [
        {
          "internalType": "uint256",
          "name": "",
          "type": "uint256"
        }
      ],
      "name": "cachedUsers",
      "outputs": [
        {
          "internalType": "address",
          "name": "",
          "type": "address"
        }
      ],
      "stateMutability": "view",
      "type": "function"
    },
    {
      "inputs": [],
      "name": "cachingIndex",
      "outputs": [
        {
          "internalType": "uint256",
          "name": "",
          "type": "uint256"
        }
      ],
      "stateMutability": "view",
      "type": "function"
    },
    {
      "inputs": [],
      "name": "currentDistributionIndex",
      "outputs": [
        {
          "internalType": "uint256",
          "name": "",
          "type": "uint256"
        }
      ],
      "stateMutability": "view",
      "type": "function"
    },
    {
      "inputs": [],
      "name": "currentRound",
      "outputs": [
        {
          "internalType": "uint256",
          "name": "",
          "type": "uint256"
        }
      ],
      "stateMutability": "view",
      "type": "function"
    },
    {
      "inputs": [
        {
          "internalType": "uint256",
          "name": "batchSize",
          "type": "uint256"
        }
      ],
      "name": "distribute",
      "outputs": [],
      "stateMutability": "nonpayable",
      "type": "function"
    },
    {
      "inputs": [],
      "name": "distributionCap",
      "outputs": [
        {
          "internalType": "uint256",
          "name": "",
          "type": "uint256"
        }
      ],
      "stateMutability": "view",
      "type": "function"
    },
    {
      "inputs": [
        {
          "internalType": "address",
          "name": "token",
          "type": "address"
        },
        {
          "internalType": "address",
          "name": "recipient",
          "type": "address"
        }
      ],
      "name": "emergencyWithdraw",
      "outputs": [],
      "stateMutability": "nonpayable",
      "type": "function"
    },
    {
      "inputs": [],
      "name": "getCachingProgress",
      "outputs": [
        {
          "internalType": "uint256",
          "name": "cached",
          "type": "uint256"
        },
        {
          "internalType": "uint256",
          "name": "total",
          "type": "uint256"
        }
      ],
      "stateMutability": "view",
      "type": "function"
    },
    {
      "inputs": [],
      "name": "getCurrentPrimeBalance",
      "outputs": [
        {
          "internalType": "uint256",
          "name": "",
          "type": "uint256"
        }
      ],
      "stateMutability": "view",
      "type": "function"
    },
    {
      "inputs": [],
      "name": "getRemainingDistributable",
      "outputs": [
        {
          "internalType": "uint256",
          "name": "",
          "type": "uint256"
        }
      ],
      "stateMutability": "view",
      "type": "function"
    },
    {
      "inputs": [],
      "name": "getRoundProgress",
      "outputs": [
        {
          "internalType": "uint256",
          "name": "distributed",
          "type": "uint256"
        },
        {
          "internalType": "uint256",
          "name": "total",
          "type": "uint256"
        }
      ],
      "stateMutability": "view",
      "type": "function"
    },
    {
      "inputs": [],
      "name": "getTotalCachedUsers",
      "outputs": [
        {
          "internalType": "uint256",
          "name": "",
          "type": "uint256"
        }
      ],
      "stateMutability": "view",
      "type": "function"
    },
    {
      "inputs": [
        {
          "internalType": "address",
          "name": "user",
          "type": "address"
        }
      ],
      "name": "getUserTotalReceived",
      "outputs": [
        {
          "internalType": "uint256",
          "name": "",
          "type": "uint256"
        }
      ],
      "stateMutability": "view",
      "type": "function"
    },
    {
      "inputs": [],
      "name": "initialDistributed",
      "outputs": [
        {
          "internalType": "uint256",
          "name": "",
          "type": "uint256"
        }
      ],
      "stateMutability": "view",
      "type": "function"
    },
    {
      "inputs": [],
      "name": "owner",
      "outputs": [
        {
          "internalType": "address",
          "name": "",
          "type": "address"
        }
      ],
      "stateMutability": "view",
      "type": "function"
    },
    {
      "inputs": [],
      "name": "primeToken",
      "outputs": [
        {
          "internalType": "contract IERC20",
          "name": "",
          "type": "address"
        }
      ],
      "stateMutability": "view",
      "type": "function"
    },
    {
      "inputs": [],
      "name": "rTKNConverter",
      "outputs": [
        {
          "internalType": "contract IRtknToPrimeConverter",
          "name": "",
          "type": "address"
        }
      ],
      "stateMutability": "view",
      "type": "function"
    },
    {
      "inputs": [],
      "name": "renounceOwnership",
      "outputs": [],
      "stateMutability": "pure",
      "type": "function"
    },
    {
      "inputs": [],
      "name": "roundInProgress",
      "outputs": [
        {
          "internalType": "bool",
          "name": "",
          "type": "bool"
        }
      ],
      "stateMutability": "view",
      "type": "function"
    },
    {
      "inputs": [],
      "name": "roundPrimeAmount",
      "outputs": [
        {
          "internalType": "uint256",
          "name": "",
          "type": "uint256"
        }
      ],
      "stateMutability": "view",
      "type": "function"
    },
    {
      "inputs": [
        {
          "internalType": "address",
          "name": "user",
          "type": "address"
        },
        {
          "internalType": "bool",
          "name": "skipped",
          "type": "bool"
        }
      ],
      "name": "setUserSkipped",
      "outputs": [],
      "stateMutability": "nonpayable",
      "type": "function"
    },
    {
      "inputs": [
        {
          "internalType": "address",
          "name": "",
          "type": "address"
        }
      ],
      "name": "skippedUsers",
      "outputs": [
        {
          "internalType": "bool",
          "name": "",
          "type": "bool"
        }
      ],
      "stateMutability": "view",
      "type": "function"
    },
    {
      "inputs": [],
      "name": "startRound",
      "outputs": [],
      "stateMutability": "nonpayable",
      "type": "function"
    },
    {
      "inputs": [],
      "name": "totalPrimeDistributed",
      "outputs": [
        {
          "internalType": "uint256",
          "name": "",
          "type": "uint256"
        }
      ],
      "stateMutability": "view",
      "type": "function"
    },
    {
      "inputs": [],
      "name": "totalShares",
      "outputs": [
        {
          "internalType": "uint256",
          "name": "",
          "type": "uint256"
        }
      ],
      "stateMutability": "view",
      "type": "function"
    },
    {
      "inputs": [
        {
          "internalType": "address",
          "name": "newOwner",
          "type": "address"
        }
      ],
      "name": "transferOwnership",
      "outputs": [],
      "stateMutability": "nonpayable",
      "type": "function"
    },
    {
      "inputs": [
        {
          "internalType": "address",
          "name": "",
          "type": "address"
        }
      ],
      "name": "userShare",
      "outputs": [
        {
          "internalType": "uint256",
          "name": "",
          "type": "uint256"
        }
      ],
      "stateMutability": "view",
      "type": "function"
    },
    {
      "inputs": [
        {
          "internalType": "address",
          "name": "",
          "type": "address"
        }
      ],
      "name": "userTotalReceived",
      "outputs": [
        {
          "internalType": "uint256",
          "name": "",
          "type": "uint256"
        }
      ],
      "stateMutability": "view",
      "type": "function"
    },
    {
      "inputs": [],
      "name": "usersCached",
      "outputs": [
        {
          "internalType": "bool",
          "name": "",
          "type": "bool"
        }
      ],
      "stateMutability": "view",
      "type": "function"
    }
  ],
  "transactionHash": "0x001c949839c6c627da12bf260d81f5c74653022fce067156df8e986e59d4c004",
  "args": [
    "0x3De81CE90f5A27C5E6A5aDb04b54ABA488a6d14E",
    "0xC1E3efF128c090A434927B0ff779d555bB3F75E5",
    "52390082479052613054074",
    "17463360967299292564219"
  ],
  "numDeployments": 1,
  "solcInputHash": "f6737345a219a246b8cf005f73cd42c8",
  "bytecode": "0x6101006040523480156200001257600080fd5b5060405162001adf38038062001adf83398101604081905262000035916200021f565b6200004033620001b2565b600180556001600160a01b038416620000a05760405162461bcd60e51b815260206004820152601b60248201527f496e76616c6964205052494d4520746f6b656e2061646472657373000000000060448201526064015b60405180910390fd5b6001600160a01b038316620000f85760405162461bcd60e51b815260206004820152601d60248201527f496e76616c69642072544b4e436f6e7665727465722061646472657373000000604482015260640162000097565b600082116200013c5760405162461bcd60e51b815260206004820152600f60248201526e0436170206d757374206265203e203608c1b604482015260640162000097565b818111156200018e5760405162461bcd60e51b815260206004820152601860248201527f696e697469616c4469737472696275746564203e206361700000000000000000604482015260640162000097565b6001600160a01b039384166080529190921660a05260c09190915260e05262000267565b600080546001600160a01b038381166001600160a01b0319831681178455604051919092169283917f8be0079c531659141344cd1fd0a4f28419497f9722a3daafe3b4186f6b6457e09190a35050565b80516001600160a01b03811681146200021a57600080fd5b919050565b600080600080608085870312156200023657600080fd5b620002418562000202565b9350620002516020860162000202565b6040860151606090960151949790965092505050565b60805160a05160c05160e0516117dc6200030360003960008181610310015281816105de015261100301526000818161035e0152818161060b0152818161066e0152818161103001526110630152600081816103370152818161048001528181610a0901528181610acd0152610b7b0152600081816103c1015281816103fd0152818161069801528181610e780152610f2c01526117dc6000f3fe608060405234801561001057600080fd5b506004361061016a5760003560e01c80631b3e2cc91461016f57806325e75fe4146101a25780632da738c8146101aa5780633350da7b146101c75780633a98ef39146101fa5780634135b689146102035780634c8dfa221461022c57806355e3f0861461024c5780636382d9ad146102565780636f9862d4146102695780636ff85ea914610276578063715018a61461027f5780637636148f14610287578063789ef0e0146102905780637939861c146102b05780638831e854146102b85780638a19c8bc146102cb5780638da5cb5b146102d457806391c05b0b146102dc578063939b671d146102ef5780639c89ae38146102f75780639e3a5d0114610302578063a05ba5ad1461030b578063b527aaf614610332578063cd63d93014610359578063d3c9560514610380578063ea5ab0ba14610389578063f2fde38b14610396578063f332ad40146103a9578063fe5a451a146103bc575b600080fd5b61018f61017d366004611540565b600c6020526000908152604090205481565b6040519081526020015b60405180910390f35b61018f6103e3565b6101b2610478565b60408051928352602083019190915201610199565b6101ea6101d5366004611540565b600d6020526000908152604090205460ff1681565b6040519015158152602001610199565b61018f60045481565b61018f610211366004611540565b6001600160a01b03166000908152600c602052604090205490565b61023f61023a366004611564565b610508565b604051610199919061157d565b610254610532565b005b610254610264366004611591565b6107f0565b6006546101ea9060ff1681565b61018f60095481565b61025461094b565b61018f60085481565b61018f61029e366004611540565b60036020526000908152604090205481565b60025461018f565b6102546102c6366004611564565b610993565b61018f60075481565b61023f610ce5565b6102546102ea366004611564565b610cf4565b61018f610ffb565b6009546002546101b2565b61018f60055481565b61018f7f000000000000000000000000000000000000000000000000000000000000000081565b61023f7f000000000000000000000000000000000000000000000000000000000000000081565b61018f7f000000000000000000000000000000000000000000000000000000000000000081565b61018f600b5481565b600a546101ea9060ff1681565b6102546103a4366004611540565b61108d565b6102546103b73660046115d8565b611103565b61023f7f000000000000000000000000000000000000000000000000000000000000000081565b6040516370a0823160e01b81526000906001600160a01b037f000000000000000000000000000000000000000000000000000000000000000016906370a082319061043290309060040161157d565b602060405180830381865afa15801561044f573d6000803e3d6000fd5b505050506040513d601f19601f820116820180604052508101906104739190611606565b905090565b6000806005547f00000000000000000000000000000000000000000000000000000000000000006001600160a01b0316639be572f66040518163ffffffff1660e01b8152600401602060405180830381865afa1580156104dc573d6000803e3d6000fd5b505050506040513d601f19601f820116820180604052508101906105009190611606565b915091509091565b6002818154811061051857600080fd5b6000918252602090912001546001600160a01b0316905081565b61053a61116a565b60065460ff166105885760405162461bcd60e51b8152602060048201526014602482015273155cd95c9cc81b9bdd0818d858da1959081e595d60621b60448201526064015b60405180910390fd5b600a5460ff16156105d75760405162461bcd60e51b8152602060048201526019602482015278526f756e6420616c726561647920696e2070726f677265737360381b604482015260640161057f565b6000600b547f00000000000000000000000000000000000000000000000000000000000000006106079190611635565b90507f000000000000000000000000000000000000000000000000000000000000000081106106665760405162461bcd60e51b815260206004820152600b60248201526a10d85c081c995858da195960aa1b604482015260640161057f565b6000610692827f000000000000000000000000000000000000000000000000000000000000000061164e565b905060007f00000000000000000000000000000000000000000000000000000000000000006001600160a01b03166370a08231306040518263ffffffff1660e01b81526004016106e2919061157d565b602060405180830381865afa1580156106ff573d6000803e3d6000fd5b505050506040513d601f19601f820116820180604052508101906107239190611606565b90506000811161076e5760405162461bcd60e51b81526020600482015260166024820152754e6f205052494d4520746f206469737472696275746560501b604482015260640161057f565b600082821061077d578261077f565b815b60078054919250600061079183611661565b909155505060088190556000600955600a805460ff191660011790556007546040517f278844837bcf8364a705384bf3a2812901f54155bae86dea81dd52aa5b9ec0e3906107e29084815260200190565b60405180910390a250505050565b6107f861116a565b6108006111cb565b6001600160a01b03811661084a5760405162461bcd60e51b8152602060048201526011602482015270125b9d985b1a59081c9958da5c1a595b9d607a1b604482015260640161057f565b600a5460ff161561086057600a805460ff191690555b6040516370a0823160e01b815282906000906001600160a01b038316906370a082319061089190309060040161157d565b602060405180830381865afa1580156108ae573d6000803e3d6000fd5b505050506040513d601f19601f820116820180604052508101906108d29190611606565b9050801561093c576108ee6001600160a01b0383168483611224565b826001600160a01b0316846001600160a01b03167ff24ef89f38eadc1bde50701ad6e4d6d11a2dc24f7cf834a486991f38833285048360405161093391815260200190565b60405180910390a35b505061094760018055565b5050565b60405162461bcd60e51b815260206004820152601f60248201527f4f776e6572736869702072656e756e63696174696f6e2064697361626c656400604482015260640161057f565b61099b61116a565b60065460ff16156109e55760405162461bcd60e51b8152602060048201526014602482015273155cd95c9cc8185b1c9958591e4818d858da195960621b604482015260640161057f565b60008111610a055760405162461bcd60e51b815260040161057f9061167a565b60007f00000000000000000000000000000000000000000000000000000000000000006001600160a01b0316639be572f66040518163ffffffff1660e01b8152600401602060405180830381865afa158015610a65573d6000803e3d6000fd5b505050506040513d601f19601f82011682018060405250810190610a899190611606565b9050600082600554610a9b9190611635565b905081811115610aa85750805b6005545b81811015610c8057604051631b2dcc5960e11b8152600481018290526000907f00000000000000000000000000000000000000000000000000000000000000006001600160a01b03169063365b98b290602401602060405180830381865afa158015610b1c573d6000803e3d6000fd5b505050506040513d601f19601f82011682018060405250810190610b4091906116aa565b6001600160a01b03811660009081526003602052604081205491925003610c6d57604051630a97379d60e41b81526000906001600160a01b037f0000000000000000000000000000000000000000000000000000000000000000169063a97379d090610bb090859060040161157d565b602060405180830381865afa158015610bcd573d6000803e3d6000fd5b505050506040513d601f19601f82011682018060405250810190610bf19190611606565b90508015610c6b5760028054600181019091557f405787fa12a823e0f2b7631cc41b3ba8828b3321ca811111fa75cd3aa3bb5ace0180546001600160a01b0319166001600160a01b038416908117909155600090815260036020526040812082905560048054839290610c65908490611635565b90915550505b505b5080610c7881611661565b915050610aac565b506005819055818110610ce0576006805460ff191660011790556002546004546040517f81aef6e7eefae6a612ea305f4afa7559c6b7a309889a1f5035f0d6d27a6deb2b92610cd792908252602082015260400190565b60405180910390a15b505050565b6000546001600160a01b031690565b610cfc61116a565b610d046111cb565b600a5460ff16610d4d5760405162461bcd60e51b81526020600482015260146024820152734e6f20726f756e6420696e2070726f677265737360601b604482015260640161057f565b60008111610d6d5760405162461bcd60e51b815260040161057f9061167a565b600081600954610d7d9190611635565b60025490915080821115610d8f578091505b6009545b82811015610efb57600060028281548110610db057610db06116c7565b60009182526020808320909101546001600160a01b0316808352600d90915260409091205490915060ff1615610de65750610ee9565b6004546001600160a01b038216600090815260036020526040812054600854919291610e1291906116dd565b610e1c91906116f4565b90508015610ee6576001600160a01b0382166000908152600c602052604081208054839290610e4c908490611635565b9250508190555080600b6000828254610e659190611635565b90915550610e9f90506001600160a01b037f0000000000000000000000000000000000000000000000000000000000000000168383611224565b816001600160a01b03166007547fb8bd97753f33619a3d40bd37523d90e68ffcecd3da1cc8076c0d1e02a8272c8e83604051610edd91815260200190565b60405180910390a35b50505b80610ef381611661565b915050610d93565b506009829055808210610fed57600a805460ff191690556040516370a0823160e01b81526000906001600160a01b037f000000000000000000000000000000000000000000000000000000000000000016906370a0823190610f6190309060040161157d565b602060405180830381865afa158015610f7e573d6000803e3d6000fd5b505050506040513d601f19601f82011682018060405250810190610fa29190611606565b90506007547f09e37b14a14603eae0cbff675fd9d7e8ee2567f26f0acf9e1d7a3ba33fcbc10960085483604051610fe3929190918252602082015260400190565b60405180910390a2505b5050610ff860018055565b50565b600080600b547f000000000000000000000000000000000000000000000000000000000000000061102c9190611635565b90507f0000000000000000000000000000000000000000000000000000000000000000811061105d57600091505090565b611087817f000000000000000000000000000000000000000000000000000000000000000061164e565b91505090565b61109561116a565b6001600160a01b0381166110fa5760405162461bcd60e51b815260206004820152602660248201527f4f776e61626c653a206e6577206f776e657220697320746865207a65726f206160448201526564647265737360d01b606482015260840161057f565b610ff881611276565b61110b61116a565b6001600160a01b0382166000818152600d6020908152604091829020805460ff191685151590811790915591519182527f7db6207283ea0a2ad6fb5a29edaa8ab8c7dcd2a358915f6b27b82e9c842071ff910160405180910390a25050565b33611173610ce5565b6001600160a01b0316146111c95760405162461bcd60e51b815260206004820181905260248201527f4f776e61626c653a2063616c6c6572206973206e6f7420746865206f776e6572604482015260640161057f565b565b60026001540361121d5760405162461bcd60e51b815260206004820152601f60248201527f5265656e7472616e637947756172643a207265656e7472616e742063616c6c00604482015260640161057f565b6002600155565b604080516001600160a01b038416602482015260448082018490528251808303909101815260649091019091526020810180516001600160e01b031663a9059cbb60e01b179052610ce09084906112c6565b600080546001600160a01b038381166001600160a01b0319831681178455604051919092169283917f8be0079c531659141344cd1fd0a4f28419497f9722a3daafe3b4186f6b6457e09190a35050565b600061131b826040518060400160405280602081526020017f5361666545524332303a206c6f772d6c6576656c2063616c6c206661696c6564815250856001600160a01b031661139b9092919063ffffffff16565b905080516000148061133c57508080602001905181019061133c9190611716565b610ce05760405162461bcd60e51b815260206004820152602a60248201527f5361666545524332303a204552433230206f7065726174696f6e20646964206e6044820152691bdd081cdd58d8d9595960b21b606482015260840161057f565b60606113aa84846000856113b2565b949350505050565b6060824710156114135760405162461bcd60e51b815260206004820152602660248201527f416464726573733a20696e73756666696369656e742062616c616e636520666f6044820152651c8818d85b1b60d21b606482015260840161057f565b600080866001600160a01b0316858760405161142f9190611757565b60006040518083038185875af1925050503d806000811461146c576040519150601f19603f3d011682016040523d82523d6000602084013e611471565b606091505b50915091506114828783838761148d565b979650505050505050565b606083156114fc5782516000036114f5576001600160a01b0385163b6114f55760405162461bcd60e51b815260206004820152601d60248201527f416464726573733a2063616c6c20746f206e6f6e2d636f6e7472616374000000604482015260640161057f565b50816113aa565b6113aa83838151156115115781518083602001fd5b8060405162461bcd60e51b815260040161057f9190611773565b6001600160a01b0381168114610ff857600080fd5b60006020828403121561155257600080fd5b813561155d8161152b565b9392505050565b60006020828403121561157657600080fd5b5035919050565b6001600160a01b0391909116815260200190565b600080604083850312156115a457600080fd5b82356115af8161152b565b915060208301356115bf8161152b565b809150509250929050565b8015158114610ff857600080fd5b600080604083850312156115eb57600080fd5b82356115f68161152b565b915060208301356115bf816115ca565b60006020828403121561161857600080fd5b5051919050565b634e487b7160e01b600052601160045260246000fd5b808201808211156116485761164861161f565b92915050565b818103818111156116485761164861161f565b6000600182016116735761167361161f565b5060010190565b602080825260169082015275042617463682073697a65206d757374206265203e20360541b604082015260600190565b6000602082840312156116bc57600080fd5b815161155d8161152b565b634e487b7160e01b600052603260045260246000fd5b80820281158282048414176116485761164861161f565b60008261171157634e487b7160e01b600052601260045260246000fd5b500490565b60006020828403121561172857600080fd5b815161155d816115ca565b60005b8381101561174e578181015183820152602001611736565b50506000910152565b60008251611769818460208701611733565b9190910192915050565b6020815260008251806020840152611792816040850160208701611733565b601f01601f1916919091016040019291505056fea26469706673582212205aef0cc7814102362bd519517b9eb869deee3b66960687005098a48f5f2aafdb64736f6c63430008110033",
  "devdoc": {
    "details": "Deploy-once contract for recurring PRIME token distributions to rTKN-to-PRIME converters. Usage:   1. Deploy once per rTKNConverter instance (1 on Avalanche, 2 on Arbitrum)   2. Call cacheUsers() in batches to snapshot user shares from the converter   3. Each distribution round: send PRIME to this contract, call startRound(), call distribute() Distribution cap:   Every instance enforces a hard cap on the total PRIME it will ever pay out,   equal to `distributionCap` (set at construction from the converter's   totalrTKNPledged × CONVERSION_RATIO). `initialDistributed` accounts for PRIME   already paid out via prior single-use PrimeRtknAirdropDistributor contracts for   the same converter. startRound() clips each round to the remaining headroom;   any PRIME sent in above the cap stays in the contract as sweepable dust.",
    "kind": "dev",
    "methods": {
      "cacheUsers(uint256)": {
        "details": "Cache users and their shares from the rTKNConverter. Call in batches until complete.      User data in the converter is frozen (Phase2 completed), so this only needs to run once.",
        "params": {
          "batchSize": "Number of users to process in this batch"
        }
      },
      "distribute(uint256)": {
        "details": "Distribute PRIME tokens to users in batches. Sends proportional amounts based on cached shares.",
        "params": {
          "batchSize": "Number of users to distribute to in this batch"
        }
      },
      "emergencyWithdraw(address,address)": {
        "details": "Emergency withdraw any token. Resets round state if called mid-round.",
        "params": {
          "recipient": "Address to receive the tokens",
          "token": "Address of the token to withdraw"
        }
      },
      "getRemainingDistributable()": {
        "details": "Lifetime PRIME still payable by this instance before the cap is reached."
      },
      "owner()": {
        "details": "Returns the address of the current owner."
      },
      "renounceOwnership()": {
        "details": "Prevent accidental ownership renunciation since the contract is meant to be permanently owned."
      },
      "setUserSkipped(address,bool)": {
        "details": "Toggle the skip flag for a cached user. Skipped users are passed over in distribute(),      allowing distribution to proceed when a specific user's transfer would revert      (e.g. a future token blocklist). The user's share stays in the contract as dust.",
        "params": {
          "skipped": "True to skip, false to re-include",
          "user": "User to skip or unskip"
        }
      },
      "startRound()": {
        "details": "Start a new distribution round. Snapshots the current PRIME balance for proportional distribution.      Send PRIME to this contract before calling this function.      The round amount is clipped to the remaining lifetime cap; any excess sits in the      contract as dust and can be swept with emergencyWithdraw."
      },
      "transferOwnership(address)": {
        "details": "Transfers ownership of the contract to a new account (`newOwner`). Can only be called by the current owner."
      }
    },
    "title": "ReusablePrimeDistributor",
    "version": 1
  },
  "userdoc": {
    "kind": "user",
    "methods": {},
    "version": 1
  },
  "storageLayout": {
    "storage": [
      {
        "astId": 7,
        "contract": "contracts/ReusablePrimeDistributor.sol:ReusablePrimeDistributor",
        "label": "_owner",
        "offset": 0,
        "slot": "0",
        "type": "t_address"
      },
      {
        "astId": 123,
        "contract": "contracts/ReusablePrimeDistributor.sol:ReusablePrimeDistributor",
        "label": "_status",
        "offset": 0,
        "slot": "1",
        "type": "t_uint256"
      },
      {
        "astId": 1048,
        "contract": "contracts/ReusablePrimeDistributor.sol:ReusablePrimeDistributor",
        "label": "cachedUsers",
        "offset": 0,
        "slot": "2",
        "type": "t_array(t_address)dyn_storage"
      },
      {
        "astId": 1052,
        "contract": "contracts/ReusablePrimeDistributor.sol:ReusablePrimeDistributor",
        "label": "userShare",
        "offset": 0,
        "slot": "3",
        "type": "t_mapping(t_address,t_uint256)"
      },
      {
        "astId": 1054,
        "contract": "contracts/ReusablePrimeDistributor.sol:ReusablePrimeDistributor",
        "label": "totalShares",
        "offset": 0,
        "slot": "4",
        "type": "t_uint256"
      },
      {
        "astId": 1056,
        "contract": "contracts/ReusablePrimeDistributor.sol:ReusablePrimeDistributor",
        "label": "cachingIndex",
        "offset": 0,
        "slot": "5",
        "type": "t_uint256"
      },
      {
        "astId": 1058,
        "contract": "contracts/ReusablePrimeDistributor.sol:ReusablePrimeDistributor",
        "label": "usersCached",
        "offset": 0,
        "slot": "6",
        "type": "t_bool"
      },
      {
        "astId": 1060,
        "contract": "contracts/ReusablePrimeDistributor.sol:ReusablePrimeDistributor",
        "label": "currentRound",
        "offset": 0,
        "slot": "7",
        "type": "t_uint256"
      },
      {
        "astId": 1062,
        "contract": "contracts/ReusablePrimeDistributor.sol:ReusablePrimeDistributor",
        "label": "roundPrimeAmount",
        "offset": 0,
        "slot": "8",
        "type": "t_uint256"
      },
      {
        "astId": 1064,
        "contract": "contracts/ReusablePrimeDistributor.sol:ReusablePrimeDistributor",
        "label": "currentDistributionIndex",
        "offset": 0,
        "slot": "9",
        "type": "t_uint256"
      },
      {
        "astId": 1066,
        "contract": "contracts/ReusablePrimeDistributor.sol:ReusablePrimeDistributor",
        "label": "roundInProgress",
        "offset": 0,
        "slot": "10",
        "type": "t_bool"
      },
      {
        "astId": 1068,
        "contract": "contracts/ReusablePrimeDistributor.sol:ReusablePrimeDistributor",
        "label": "totalPrimeDistributed",
        "offset": 0,
        "slot": "11",
        "type": "t_uint256"
      },
      {
        "astId": 1072,
        "contract": "contracts/ReusablePrimeDistributor.sol:ReusablePrimeDistributor",
        "label": "userTotalReceived",
        "offset": 0,
        "slot": "12",
        "type": "t_mapping(t_address,t_uint256)"
      },
      {
        "astId": 1076,
        "contract": "contracts/ReusablePrimeDistributor.sol:ReusablePrimeDistributor",
        "label": "skippedUsers",
        "offset": 0,
        "slot": "13",
        "type": "t_mapping(t_address,t_bool)"
      }
    ],
    "types": {
      "t_address": {
        "encoding": "inplace",
        "label": "address",
        "numberOfBytes": "20"
      },
      "t_array(t_address)dyn_storage": {
        "base": "t_address",
        "encoding": "dynamic_array",
        "label": "address[]",
        "numberOfBytes": "32"
      },
      "t_bool": {
        "encoding": "inplace",
        "label": "bool",
        "numberOfBytes": "1"
      },
      "t_mapping(t_address,t_bool)": {
        "encoding": "mapping",
        "key": "t_address",
        "label": "mapping(address => bool)",
        "numberOfBytes": "32",
        "value": "t_bool"
      },
      "t_mapping(t_address,t_uint256)": {
        "encoding": "mapping",
        "key": "t_address",
        "label": "mapping(address => uint256)",
        "numberOfBytes": "32",
        "value": "t_uint256"
      },
      "t_uint256": {
        "encoding": "inplace",
        "label": "uint256",
        "numberOfBytes": "32"
      }
    }
  }
}