{
  "address": "0x4c11e3Baa50E305AfDb4268F1dd93feDefE7F31D",
  "abi": [
    {
      "inputs": [],
      "name": "CalldataMustHaveValidPayload",
      "type": "error"
    },
    {
      "inputs": [],
      "name": "CalldataOverOrUnderFlow",
      "type": "error"
    },
    {
      "inputs": [],
      "name": "DataPackageTimestampMustNotBeZero",
      "type": "error"
    },
    {
      "inputs": [],
      "name": "DataPackageTimestampsMustBeEqual",
      "type": "error"
    },
    {
      "inputs": [],
      "name": "EachSignerMustProvideTheSameValue",
      "type": "error"
    },
    {
      "inputs": [],
      "name": "EmptyCalldataPointersArr",
      "type": "error"
    },
    {
      "inputs": [],
      "name": "IncorrectUnsignedMetadataSize",
      "type": "error"
    },
    {
      "inputs": [
        {
          "internalType": "uint256",
          "name": "receivedSignersCount",
          "type": "uint256"
        },
        {
          "internalType": "uint256",
          "name": "requiredSignersCount",
          "type": "uint256"
        }
      ],
      "name": "InsufficientNumberOfUniqueSigners",
      "type": "error"
    },
    {
      "inputs": [],
      "name": "InvalidCalldataPointer",
      "type": "error"
    },
    {
      "inputs": [],
      "name": "OwnerIsLiquidator",
      "type": "error"
    },
    {
      "inputs": [
        {
          "internalType": "bytes",
          "name": "result",
          "type": "bytes"
        }
      ],
      "name": "ProxyCalldataFailedWithCustomError",
      "type": "error"
    },
    {
      "inputs": [
        {
          "internalType": "string",
          "name": "message",
          "type": "string"
        }
      ],
      "name": "ProxyCalldataFailedWithStringMessage",
      "type": "error"
    },
    {
      "inputs": [],
      "name": "ProxyCalldataFailedWithoutErrMsg",
      "type": "error"
    },
    {
      "inputs": [],
      "name": "RedstonePayloadMustHaveAtLeastOneDataPackage",
      "type": "error"
    },
    {
      "inputs": [
        {
          "internalType": "address",
          "name": "receivedSigner",
          "type": "address"
        }
      ],
      "name": "SignerNotAuthorised",
      "type": "error"
    },
    {
      "anonymous": false,
      "inputs": [
        {
          "indexed": false,
          "internalType": "uint8",
          "name": "version",
          "type": "uint8"
        }
      ],
      "name": "Initialized",
      "type": "event"
    },
    {
      "anonymous": false,
      "inputs": [
        {
          "indexed": true,
          "internalType": "address",
          "name": "previousOwner",
          "type": "address"
        },
        {
          "indexed": true,
          "internalType": "address",
          "name": "newOwner",
          "type": "address"
        }
      ],
      "name": "OwnershipTransferred",
      "type": "event"
    },
    {
      "anonymous": false,
      "inputs": [
        {
          "indexed": true,
          "internalType": "address",
          "name": "accountAddress",
          "type": "address"
        },
        {
          "indexed": true,
          "internalType": "address",
          "name": "creator",
          "type": "address"
        },
        {
          "indexed": false,
          "internalType": "bytes32",
          "name": "collateralAsset",
          "type": "bytes32"
        },
        {
          "indexed": false,
          "internalType": "uint256",
          "name": "collateralAmount",
          "type": "uint256"
        }
      ],
      "name": "SmartLoanCreated",
      "type": "event"
    },
    {
      "inputs": [
        {
          "internalType": "address",
          "name": "_account",
          "type": "address"
        }
      ],
      "name": "canBorrow",
      "outputs": [
        {
          "internalType": "bool",
          "name": "",
          "type": "bool"
        }
      ],
      "stateMutability": "view",
      "type": "function"
    },
    {
      "inputs": [
        {
          "internalType": "address",
          "name": "_newOwner",
          "type": "address"
        }
      ],
      "name": "changeOwnership",
      "outputs": [],
      "stateMutability": "nonpayable",
      "type": "function"
    },
    {
      "inputs": [
        {
          "internalType": "bytes32",
          "name": "_fundedAsset",
          "type": "bytes32"
        },
        {
          "internalType": "uint256",
          "name": "_amount",
          "type": "uint256"
        }
      ],
      "name": "createAndFundLoan",
      "outputs": [
        {
          "internalType": "contract SmartLoanDiamondBeacon",
          "name": "",
          "type": "address"
        }
      ],
      "stateMutability": "nonpayable",
      "type": "function"
    },
    {
      "inputs": [],
      "name": "createLoan",
      "outputs": [
        {
          "internalType": "contract SmartLoanDiamondBeacon",
          "name": "",
          "type": "address"
        }
      ],
      "stateMutability": "nonpayable",
      "type": "function"
    },
    {
      "inputs": [],
      "name": "extractTimestampsAndAssertAllAreEqual",
      "outputs": [
        {
          "internalType": "uint256",
          "name": "extractedTimestamp",
          "type": "uint256"
        }
      ],
      "stateMutability": "pure",
      "type": "function"
    },
    {
      "inputs": [],
      "name": "getAllLoans",
      "outputs": [
        {
          "internalType": "address[]",
          "name": "",
          "type": "address[]"
        }
      ],
      "stateMutability": "view",
      "type": "function"
    },
    {
      "inputs": [
        {
          "internalType": "address",
          "name": "_user",
          "type": "address"
        }
      ],
      "name": "getLoanForOwner",
      "outputs": [
        {
          "internalType": "address",
          "name": "",
          "type": "address"
        }
      ],
      "stateMutability": "view",
      "type": "function"
    },
    {
      "inputs": [
        {
          "internalType": "uint256",
          "name": "_from",
          "type": "uint256"
        },
        {
          "internalType": "uint256",
          "name": "_count",
          "type": "uint256"
        }
      ],
      "name": "getLoans",
      "outputs": [
        {
          "internalType": "address[]",
          "name": "_loans",
          "type": "address[]"
        }
      ],
      "stateMutability": "view",
      "type": "function"
    },
    {
      "inputs": [],
      "name": "getLoansLength",
      "outputs": [
        {
          "internalType": "uint256",
          "name": "",
          "type": "uint256"
        }
      ],
      "stateMutability": "view",
      "type": "function"
    },
    {
      "inputs": [
        {
          "internalType": "address",
          "name": "_loan",
          "type": "address"
        }
      ],
      "name": "getOwnerOfLoan",
      "outputs": [
        {
          "internalType": "address",
          "name": "",
          "type": "address"
        }
      ],
      "stateMutability": "view",
      "type": "function"
    },
    {
      "inputs": [
        {
          "internalType": "address payable",
          "name": "_smartLoanDiamond",
          "type": "address"
        },
        {
          "internalType": "address",
          "name": "_tokenManager",
          "type": "address"
        }
      ],
      "name": "initialize",
      "outputs": [],
      "stateMutability": "nonpayable",
      "type": "function"
    },
    {
      "inputs": [
        {
          "internalType": "address",
          "name": "",
          "type": "address"
        }
      ],
      "name": "loansToOwners",
      "outputs": [
        {
          "internalType": "address",
          "name": "",
          "type": "address"
        }
      ],
      "stateMutability": "view",
      "type": "function"
    },
    {
      "inputs": [],
      "name": "owner",
      "outputs": [
        {
          "internalType": "address",
          "name": "",
          "type": "address"
        }
      ],
      "stateMutability": "view",
      "type": "function"
    },
    {
      "inputs": [
        {
          "internalType": "address",
          "name": "",
          "type": "address"
        }
      ],
      "name": "ownersToLoans",
      "outputs": [
        {
          "internalType": "address",
          "name": "",
          "type": "address"
        }
      ],
      "stateMutability": "view",
      "type": "function"
    },
    {
      "inputs": [],
      "name": "renounceOwnership",
      "outputs": [],
      "stateMutability": "nonpayable",
      "type": "function"
    },
    {
      "inputs": [
        {
          "internalType": "address",
          "name": "_tokenManager",
          "type": "address"
        }
      ],
      "name": "setTokenManager",
      "outputs": [],
      "stateMutability": "nonpayable",
      "type": "function"
    },
    {
      "inputs": [],
      "name": "smartLoanDiamond",
      "outputs": [
        {
          "internalType": "contract SmartLoanDiamondBeacon",
          "name": "",
          "type": "address"
        }
      ],
      "stateMutability": "view",
      "type": "function"
    },
    {
      "inputs": [],
      "name": "tokenManager",
      "outputs": [
        {
          "internalType": "contract ITokenManager",
          "name": "",
          "type": "address"
        }
      ],
      "stateMutability": "view",
      "type": "function"
    },
    {
      "inputs": [
        {
          "internalType": "address",
          "name": "newOwner",
          "type": "address"
        }
      ],
      "name": "transferOwnership",
      "outputs": [],
      "stateMutability": "nonpayable",
      "type": "function"
    }
  ],
  "transactionHash": "0xad5919e46499eab9ed1bbda2ed585b44a952ef8357c99d298e67e7775797800f",
  "args": [],
  "numDeployments": 7,
  "solcInputHash": "05e090a4364b9c9eba432d57b86b96f8",
  "bytecode": "0x608060405234801561001057600080fd5b50612338806100206000396000f3fe60806040523480156200001157600080fd5b5060043610620001065760003560e01c8063098b79c2146200010b5780630e7fc864146200013a5780631f278b74146200017c5780632a709b1414620001a85780632af4c31e14620001bc5780633344a55514620001d5578063357719ef1462000204578063485cc955146200023057806355a547d514620002475780635b012546146200026057806365ec1a45146200028f578063715018a614620001d35780637cb2b79c146200029957806386b2010414620002b05780638da5cb5b14620002d6578063a5bfd16a14620002e0578063ab54b33c14620002ea578063f2fde38b14620002fe578063f89dcbfd1462000315575b600080fd5b620001226200011c366004620015be565b6200031e565b604051620001319190620015e1565b60405180910390f35b6200016b6200014b3660046200160b565b6001600160a01b0390811660009081526067602052604090205416151590565b604051901515815260200162000131565b620001226200018d3660046200160b565b6067602052600090815260409020546001600160a01b031681565b60695462000122906001600160a01b031681565b620001d3620001cd3660046200160b565b6200066f565b005b62000122620001e63660046200160b565b6001600160a01b039081166000908152606660205260409020541690565b62000122620002153660046200160b565b6066602052600090815260409020546001600160a01b031681565b620001d3620002413660046200162b565b620008a4565b62000251620009f0565b60405190815260200162000131565b62000122620002713660046200160b565b6001600160a01b039081166000908152606760205260409020541690565b6200012262000b1f565b620001d3620002aa3660046200160b565b62000d06565b620002c7620002c1366004620015be565b62000d32565b60405162000131919062001669565b6200012262000e55565b620002c762000e64565b60655462000122906001600160a01b031681565b620001d36200030f3660046200160b565b62000ec8565b60685462000251565b600080516020620022c38339815191528054600091906001198101620003615760405162461bcd60e51b81526004016200035890620016b8565b60405180910390fd5b60028255620003703362000f47565b15620003905760405162461bcd60e51b81526004016200035890620016ef565b6069546040516325eb876f60e01b815260048101879052600060248201819052916001600160a01b0316906325eb876f90604401602060405180830381865afa158015620003e2573d6000803e3d6000fd5b505050506040513d601f19601f8201168201806040525081019062000408919062001731565b6065546040519192506000916001600160a01b039091169063189acdbd60e31b9062000439903390602401620015e1565b60408051601f198184030181529181526020820180516001600160e01b03166001600160e01b03199094169390931790925290516200047890620015b0565b62000485929190620017a5565b604051809103906000f080158015620004a2573d6000803e3d6000fd5b506065546040516338c67f3360e21b815291925082916001600160a01b039091169063e319fccc90620004da903390600401620015e1565b602060405180830381865afa158015620004f8573d6000803e3d6000fd5b505050506040513d601f19601f820116820180604052508101906200051e9190620017cb565b156200053d576040516312b8a55560e01b815260040160405180910390fd5b62000549813362000f67565b82620005616001600160a01b03821633308b62000fe8565b620005776001600160a01b038216838a62001130565b60408051602481018b905260448082018b905282518083039091018152606490910182526020810180516001600160e01b0316637235de4f60e11b179052905160009182916001600160a01b03861691620005d291620017ef565b6000604051808303816000865af19150503d806000811462000611576040519150601f19603f3d011682016040523d82523d6000602084013e62000616565b606091505b509150915062000627828262001269565b50604080518c8152602081018c905233916001600160a01b03871691600080516020620022e3833981519152910160405180910390a350506001909555979650505050505050565b6065546040516338c67f3360e21b81526001600160a01b039091169063e319fccc90620006a1908490600401620015e1565b602060405180830381865afa158015620006bf573d6000803e3d6000fd5b505050506040513d601f19601f82011682018060405250810190620006e59190620017cb565b1562000704576040516312b8a55560e01b815260040160405180910390fd5b336000818152606760205260409020546001600160a01b0316806200077b5760405162461bcd60e51b815260206004820152602660248201527f4f6e6c79206120536d6172744c6f616e2063616e206368616e676520697427736044820152651037bbb732b960d11b606482015260840162000358565b620007868362000f47565b15620007d45760405162461bcd60e51b815260206004820152601c60248201527b2732bb9037bbb732b91030b63932b0b23c903430b99030903637b0b760211b604482015260640162000358565b806001600160a01b0316836001600160a01b0316036200084b5760405162461bcd60e51b815260206004820152602b60248201527f43616e6e6f74207472616e73666572206f776e65727368697020746f2074686560448201526a1039b0b6b29037bbb732b960a91b606482015260840162000358565b6001600160a01b03908116600090815260666020908152604080832080546001600160a01b0319908116909155958416808452818420805496909516958716861790945593825260679052919091208054909216179055565b600054610100900460ff1615808015620008c55750600054600160ff909116105b80620008e15750303b158015620008e1575060005460ff166001145b620009465760405162461bcd60e51b815260206004820152602e60248201527f496e697469616c697a61626c653a20636f6e747261637420697320616c72656160448201526d191e481a5b9a5d1a585b1a5e995960921b606482015260840162000358565b6000805460ff1916600117905580156200096a576000805461ff0019166101001790555b606580546001600160a01b038086166001600160a01b0319928316179092556069805492851692909116919091179055620009a4620012ed565b8015620009eb576000805461ff0019169055604051600181527f7f26b83ff96e1f2b6a682f133852f6798a09c465da95921460cefb38474024989060200160405180910390a15b505050565b600080620009fd62001321565b9050600062000a0c82620013d8565b61ffff1690508060000362000a3457604051632154bfcf60e21b815260040160405180910390fd5b62000a4160028362001823565b915060005b8181101562000b1957600062000a5c8462001415565b905060008062000a6e60688762001823565b9050600062000a7e823662001839565b9050803592508265ffffffffffff1660000362000aae57604051630336dc9d60e41b815260040160405180910390fd5b8760000362000ac8578265ffffffffffff16975062000af1565b878365ffffffffffff161462000af15760405163d9d1f46560e01b815260040160405180910390fd5b62000afd848862001823565b965050505050808062000b10906200184f565b91505062000a46565b50505090565b600080516020620022c3833981519152805460009190600119810162000b595760405162461bcd60e51b81526004016200035890620016b8565b6002825562000b683362000f47565b1562000b885760405162461bcd60e51b81526004016200035890620016ef565b6065546040516000916001600160a01b03169063189acdbd60e31b9062000bb4903390602401620015e1565b60408051601f198184030181529181526020820180516001600160e01b03166001600160e01b031990941693909317909252905162000bf390620015b0565b62000c00929190620017a5565b604051809103906000f08015801562000c1d573d6000803e3d6000fd5b506065546040516338c67f3360e21b815291925082916001600160a01b039091169063e319fccc9062000c55903390600401620015e1565b602060405180830381865afa15801562000c73573d6000803e3d6000fd5b505050506040513d601f19601f8201168201806040525081019062000c999190620017cb565b1562000cb8576040516312b8a55560e01b815260040160405180910390fd5b62000cc4813362000f67565b604080516000808252602082015233916001600160a01b03841691600080516020620022e3833981519152910160405180910390a3935050506001905590565b565b62000d1062001459565b606980546001600160a01b0319166001600160a01b0392909216919091179055565b60685460609080841062000d5757505060408051600081526020810190915262000e4f565b62000d63848262001839565b83111562000d7a5762000d77848262001839565b92505b826001600160401b0381111562000d955762000d956200186b565b60405190808252806020026020018201604052801562000dbf578160200160208202803683370190505b50915060005b83811462000e4c57606862000ddb828762001823565b8154811062000dee5762000dee62001881565b9060005260206000200160009054906101000a90046001600160a01b031683828151811062000e215762000e2162001881565b6001600160a01b039092166020928302919091019091015262000e44816200184f565b905062000dc5565b50505b92915050565b6033546001600160a01b031690565b6060606880548060200260200160405190810160405280929190818152602001828054801562000ebe57602002820191906000526020600020905b81546001600160a01b0316815260019091019060200180831162000e9f575b5050505050905090565b62000ed262001459565b6001600160a01b03811662000f395760405162461bcd60e51b815260206004820152602660248201527f4f776e61626c653a206e6577206f776e657220697320746865207a65726f206160448201526564647265737360d01b606482015260840162000358565b62000f4481620014bc565b50565b6001600160a01b0390811660009081526066602052604090205416151590565b6001600160a01b0390811660008181526066602090815260408083208054959096166001600160a01b0319958616811790965585835260679091528120805484169092179091556068805460018101825591527fa2153420d844928b4421650203c77babc8b33d7f2e7b450e2966db0c220977530180549091169091179055565b604080516001600160a01b0385811660248301528481166044830152606480830185905283518084039091018152608490920183526020820180516001600160e01b03166323b872dd60e01b17905291516000928392908816916200104e9190620017ef565b6000604051808303816000865af19150503d80600081146200108d576040519150601f19603f3d011682016040523d82523d6000602084013e62001092565b606091505b5091509150818015620010c0575080511580620010c0575080806020019051810190620010c09190620017cb565b620011285760405162461bcd60e51b815260206004820152603160248201527f5472616e7366657248656c7065723a3a7472616e7366657246726f6d3a207472604482015270185b9cd9995c919c9bdb4819985a5b1959607a1b606482015260840162000358565b505050505050565b604080516001600160a01b038481166024830152604480830185905283518084039091018152606490920183526020820180516001600160e01b031663095ea7b360e01b17905291516000928392908716916200118e9190620017ef565b6000604051808303816000865af19150503d8060008114620011cd576040519150601f19603f3d011682016040523d82523d6000602084013e620011d2565b606091505b50915091508180156200120057508051158062001200575080806020019051810190620012009190620017cb565b620012625760405162461bcd60e51b815260206004820152602b60248201527f5472616e7366657248656c7065723a3a73616665417070726f76653a2061707060448201526a1c9bdd994819985a5b195960aa1b606482015260840162000358565b5050505050565b606082620012e75781516000036200129457604051632b3ff13d60e11b815260040160405180910390fd5b602082015162461bcd60e51b148015620012ca576040516301efd04f60e31b815260448401906200035890829060040162001897565b8260405163fd36fde360e01b815260040162000358919062001897565b50919050565b600054610100900460ff16620013175760405162461bcd60e51b81526004016200035890620018ac565b62000d046200150e565b60006602ed57011e0000601f193601358116148062001353576040516373bb264f60e11b815260040160405180910390fd5b600036602911156200137857604051632bcb7bc560e11b815260040160405180910390fd5b506028193601356000600962001395600362ffffff851662001823565b620013a1919062001823565b905036620013b160028362001823565b1115620013d15760405163c30a7bd760e01b815260040160405180910390fd5b9392505050565b600080620013e860208462001823565b9050368111156200140c57604051632bcb7bc560e11b815260040160405180910390fd5b36033592915050565b6000806000620014258462001543565b9092509050604e6200143982602062001823565b620014459084620018f7565b62001451919062001823565b949350505050565b336200146462000e55565b6001600160a01b03161462000d045760405162461bcd60e51b815260206004820181905260248201527f4f776e61626c653a2063616c6c6572206973206e6f7420746865206f776e6572604482015260640162000358565b603380546001600160a01b038381166001600160a01b0319831681179093556040519116919082907f8be0079c531659141344cd1fd0a4f28419497f9722a3daafe3b4186f6b6457e090600090a35050565b600054610100900460ff16620015385760405162461bcd60e51b81526004016200035890620018ac565b62000d0433620014bc565b6000808080806200155660418762001823565b90506000620015736200156b60208462001823565b3690620015a2565b80359450905062001586816003620015a2565b62ffffff9490941697933563ffffffff16965092945050505050565b6000620013d1828462001839565b6109b1806200191283390190565b60008060408385031215620015d257600080fd5b50508035926020909101359150565b6001600160a01b0391909116815260200190565b6001600160a01b038116811462000f4457600080fd5b6000602082840312156200161e57600080fd5b8135620013d181620015f5565b600080604083850312156200163f57600080fd5b82356200164c81620015f5565b915060208301356200165e81620015f5565b809150509250929050565b6020808252825182820181905260009190848201906040850190845b81811015620016ac5783516001600160a01b03168352928401929184019160010162001685565b50909695505050505050565b6020808252601f908201527f5265656e7472616e637947756172643a207265656e7472616e742063616c6c00604082015260600190565b60208082526022908201527f4f6e6c79206f6e65206c6f616e20706572206f776e657220697320616c6c6f77604082015261195960f21b606082015260800190565b6000602082840312156200174457600080fd5b8151620013d181620015f5565b60005b838110156200176e57818101518382015260200162001754565b50506000910152565b600081518084526200179181602086016020860162001751565b601f01601f19169290920160200192915050565b6001600160a01b0383168152604060208201819052600090620014519083018462001777565b600060208284031215620017de57600080fd5b81518015158114620013d157600080fd5b600082516200180381846020870162001751565b9190910192915050565b634e487b7160e01b600052601160045260246000fd5b8082018082111562000e4f5762000e4f6200180d565b8181038181111562000e4f5762000e4f6200180d565b6000600182016200186457620018646200180d565b5060010190565b634e487b7160e01b600052604160045260246000fd5b634e487b7160e01b600052603260045260246000fd5b602081526000620013d1602083018462001777565b6020808252602b908201527f496e697469616c697a61626c653a20636f6e7472616374206973206e6f74206960408201526a6e697469616c697a696e6760a81b606082015260800190565b808202811582820484141762000e4f5762000e4f6200180d56fe60806040526040516109b13803806109b1833981016040819052610022916104a4565b818161004f60017fa3f0ad74e5423aebfd80d3ef4346578335a9a72aeaee59ff6cb3582b35133d51610564565b60008051602061096a8339815191521461006b5761006b610585565b61007782826000610080565b50505050610605565b61008983610159565b6040516001600160a01b038416907f1cf3b03a6cf19fa2baba4df148e9dcabedea7f8a5c07840e207e5c089be95d3e90600090a26000825111806100ca5750805b1561015457604051630d74157760e01b815263189acdbd60e31b6004820152610152906001600160a01b03851690630d74157790602401602060405180830381865afa15801561011e573d6000803e3d6000fd5b505050506040513d601f19601f82011682018060405250810190610142919061059b565b836102ea60201b6100271760201c565b505b505050565b61016c8161031860201b6100531760201c565b6101cb5760405162461bcd60e51b815260206004820152602560248201527f455243313936373a206e657720626561636f6e206973206e6f74206120636f6e6044820152641d1c9858dd60da1b60648201526084015b60405180910390fd5b61023f816001600160a01b0316635c60da1b6040518163ffffffff1660e01b8152600401602060405180830381865afa15801561020c573d6000803e3d6000fd5b505050506040513d601f19601f82011682018060405250810190610230919061059b565b61031860201b6100531760201c565b6102a45760405162461bcd60e51b815260206004820152603060248201527f455243313936373a20626561636f6e20696d706c656d656e746174696f6e206960448201526f1cc81b9bdd08184818dbdb9d1c9858dd60821b60648201526084016101c2565b806102c960008051602061096a83398151915260001b61032760201b6100621760201c565b80546001600160a01b0319166001600160a01b039290921691909117905550565b606061030f838360405180606001604052806027815260200161098a6027913961032a565b90505b92915050565b6001600160a01b03163b151590565b90565b6060600080856001600160a01b03168560405161034791906105b6565b600060405180830381855af49150503d8060008114610382576040519150601f19603f3d011682016040523d82523d6000602084013e610387565b606091505b509092509050610399868383876103a3565b9695505050505050565b6060831561041257825160000361040b576001600160a01b0385163b61040b5760405162461bcd60e51b815260206004820152601d60248201527f416464726573733a2063616c6c20746f206e6f6e2d636f6e747261637400000060448201526064016101c2565b508161041c565b61041c8383610424565b949350505050565b8151156104345781518083602001fd5b8060405162461bcd60e51b81526004016101c291906105d2565b80516001600160a01b038116811461046557600080fd5b919050565b634e487b7160e01b600052604160045260246000fd5b60005b8381101561049b578181015183820152602001610483565b50506000910152565b600080604083850312156104b757600080fd5b6104c08361044e565b60208401519092506001600160401b03808211156104dd57600080fd5b818501915085601f8301126104f157600080fd5b8151818111156105035761050361046a565b604051601f8201601f19908116603f0116810190838211818310171561052b5761052b61046a565b8160405282815288602084870101111561054457600080fd5b610555836020830160208801610480565b80955050505050509250929050565b8181038181111561031257634e487b7160e01b600052601160045260246000fd5b634e487b7160e01b600052600160045260246000fd5b6000602082840312156105ad57600080fd5b61030f8261044e565b600082516105c8818460208701610480565b9190910192915050565b60208152600082518060208401526105f1816040850160208701610480565b601f01601f19169190910160400192915050565b610356806106146000396000f3fe60806040523661000b57005b610013610015565b005b610025610020610065565b610113565b565b606061004c83836040518060600160405280602781526020016102fa60279139610137565b9392505050565b6001600160a01b03163b151590565b90565b60006100987fa3f0ad74e5423aebfd80d3ef4346578335a9a72aeaee59ff6cb3582b35133d50546001600160a01b031690565b604051630d74157760e01b81526001600160e01b03196000351660048201526001600160a01b039190911690630d74157790602401602060405180830381865afa1580156100ea573d6000803e3d6000fd5b505050506040513d601f19601f8201168201806040525081019061010e919061025d565b905090565b3660008037600080366000845af43d6000803e808015610132573d6000f35b3d6000fd5b6060600080856001600160a01b03168560405161015491906102aa565b600060405180830381855af49150503d806000811461018f576040519150601f19603f3d011682016040523d82523d6000602084013e610194565b606091505b50915091506101a5868383876101af565b9695505050505050565b6060831561022157825160000361021a576101c985610053565b61021a5760405162461bcd60e51b815260206004820152601d60248201527f416464726573733a2063616c6c20746f206e6f6e2d636f6e747261637400000060448201526064015b60405180910390fd5b508161022b565b61022b8383610233565b949350505050565b8151156102435781518083602001fd5b8060405162461bcd60e51b815260040161021191906102c6565b60006020828403121561026f57600080fd5b81516001600160a01b038116811461004c57600080fd5b60005b838110156102a1578181015183820152602001610289565b50506000910152565b600082516102bc818460208701610286565b9190910192915050565b60208152600082518060208401526102e5816040850160208701610286565b601f01601f1916919091016040019291505056fe416464726573733a206c6f772d6c6576656c2064656c65676174652063616c6c206661696c6564a2646970667358221220ae7da96fc1774dd38cd943d09a0e57e7fc6b5605ebe2266b6de5415775922d8164736f6c63430008110033a3f0ad74e5423aebfd80d3ef4346578335a9a72aeaee59ff6cb3582b35133d50416464726573733a206c6f772d6c6576656c2064656c65676174652063616c6c206661696c65646e59650437fd1710683c11a6d685ecfadc1473633eabc9e55e8b4976559158e83c5330cb261eae74426865a348927ace59eae441485c71a110df598f825b6369a264697066735822122040a8a9507a4ad56030bbcb2bb16a290a5463c2810c9c068fdc676e84914e3bed64736f6c63430008110033",
  "devdoc": {
    "details": "Contract responsible for creating new instances of SmartLoans (SmartLoanDiamondBeacon). It's possible to either simply create a new loan or create and fund it with an ERC20 asset as well as borrow in a single transaction. At the time of creating a loan, SmartLoansFactory contract is the owner for the sake of being able to perform the fund() and borrow() operations. At the end of the createAndFundLoan the ownership is transferred to the msg.sender. It's also responsible for keeping track of the loans, ensuring one loan per wallet rule, ownership transfers proposals/execution and authorizes registered loans to borrow from lending pools.",
    "events": {
      "SmartLoanCreated(address,address,bytes32,uint256)": {
        "details": "emitted after creating a loan by the owner",
        "params": {
          "accountAddress": "address of a new SmartLoanDiamondBeacon",
          "collateralAmount": "amount of asset used as initial collateral*",
          "collateralAsset": "asset used as initial collateral",
          "creator": "account creating a SmartLoanDiamondBeacon"
        }
      }
    },
    "kind": "dev",
    "methods": {
      "owner()": {
        "details": "Returns the address of the current owner."
      },
      "renounceOwnership()": {
        "details": "Leaves the contract without owner. It will not be possible to call `onlyOwner` functions. Can only be called by the current owner. NOTE: Renouncing ownership will leave the contract without an owner, thereby disabling any functionality that is only available to the owner."
      },
      "transferOwnership(address)": {
        "details": "Transfers ownership of the contract to a new account (`newOwner`). Can only be called by the current owner."
      }
    },
    "stateVariables": {
      "_REENTRANCY_GUARD_SLOT": {
        "details": "Reentrancy guard backed by a fixed keccak storage slot instead of inheritance from `ReentrancyGuardUpgradeable`. Because this contract sits behind a TransparentUpgradeableProxy with already-populated storage, adding a new upgradeable base would insert that base's slots (`_status` + `__gap[49]` = 50 slots for `ReentrancyGuardUpgradeable`) into the C3-linearized layout and shift every SmartLoansFactory state variable down by the same amount. A fixed keccak-derived slot keeps the inheritance list, and therefore the storage layout, byte-identical across upgrades. Semantics are otherwise identical to OZ's `ReentrancyGuard`."
      }
    },
    "title": "SmartLoansFactory",
    "version": 1
  },
  "userdoc": {
    "kind": "user",
    "methods": {},
    "version": 1
  },
  "storageLayout": {
    "storage": [
      {
        "astId": 184,
        "contract": "contracts/SmartLoansFactory.sol:SmartLoansFactory",
        "label": "_initialized",
        "offset": 0,
        "slot": "0",
        "type": "t_uint8"
      },
      {
        "astId": 187,
        "contract": "contracts/SmartLoansFactory.sol:SmartLoansFactory",
        "label": "_initializing",
        "offset": 1,
        "slot": "0",
        "type": "t_bool"
      },
      {
        "astId": 801,
        "contract": "contracts/SmartLoansFactory.sol:SmartLoansFactory",
        "label": "__gap",
        "offset": 0,
        "slot": "1",
        "type": "t_array(t_uint256)50_storage"
      },
      {
        "astId": 56,
        "contract": "contracts/SmartLoansFactory.sol:SmartLoansFactory",
        "label": "_owner",
        "offset": 0,
        "slot": "51",
        "type": "t_address"
      },
      {
        "astId": 176,
        "contract": "contracts/SmartLoansFactory.sol:SmartLoansFactory",
        "label": "__gap",
        "offset": 0,
        "slot": "52",
        "type": "t_array(t_uint256)49_storage"
      },
      {
        "astId": 10118,
        "contract": "contracts/SmartLoansFactory.sol:SmartLoansFactory",
        "label": "smartLoanDiamond",
        "offset": 0,
        "slot": "101",
        "type": "t_contract(SmartLoanDiamondBeacon)10043"
      },
      {
        "astId": 10122,
        "contract": "contracts/SmartLoansFactory.sol:SmartLoansFactory",
        "label": "ownersToLoans",
        "offset": 0,
        "slot": "102",
        "type": "t_mapping(t_address,t_address)"
      },
      {
        "astId": 10126,
        "contract": "contracts/SmartLoansFactory.sol:SmartLoansFactory",
        "label": "loansToOwners",
        "offset": 0,
        "slot": "103",
        "type": "t_mapping(t_address,t_address)"
      },
      {
        "astId": 10129,
        "contract": "contracts/SmartLoansFactory.sol:SmartLoansFactory",
        "label": "loans",
        "offset": 0,
        "slot": "104",
        "type": "t_array(t_address)dyn_storage"
      },
      {
        "astId": 10132,
        "contract": "contracts/SmartLoansFactory.sol:SmartLoansFactory",
        "label": "tokenManager",
        "offset": 0,
        "slot": "105",
        "type": "t_contract(ITokenManager)19993"
      }
    ],
    "types": {
      "t_address": {
        "encoding": "inplace",
        "label": "address",
        "numberOfBytes": "20"
      },
      "t_array(t_address)dyn_storage": {
        "base": "t_address",
        "encoding": "dynamic_array",
        "label": "address[]",
        "numberOfBytes": "32"
      },
      "t_array(t_uint256)49_storage": {
        "base": "t_uint256",
        "encoding": "inplace",
        "label": "uint256[49]",
        "numberOfBytes": "1568"
      },
      "t_array(t_uint256)50_storage": {
        "base": "t_uint256",
        "encoding": "inplace",
        "label": "uint256[50]",
        "numberOfBytes": "1600"
      },
      "t_bool": {
        "encoding": "inplace",
        "label": "bool",
        "numberOfBytes": "1"
      },
      "t_contract(ITokenManager)19993": {
        "encoding": "inplace",
        "label": "contract ITokenManager",
        "numberOfBytes": "20"
      },
      "t_contract(SmartLoanDiamondBeacon)10043": {
        "encoding": "inplace",
        "label": "contract SmartLoanDiamondBeacon",
        "numberOfBytes": "20"
      },
      "t_mapping(t_address,t_address)": {
        "encoding": "mapping",
        "key": "t_address",
        "label": "mapping(address => address)",
        "numberOfBytes": "32",
        "value": "t_address"
      },
      "t_uint256": {
        "encoding": "inplace",
        "label": "uint256",
        "numberOfBytes": "32"
      },
      "t_uint8": {
        "encoding": "inplace",
        "label": "uint8",
        "numberOfBytes": "1"
      }
    }
  }
}